{"abi":[{"type":"constructor","inputs":[],"stateMutability":"nonpayable"},{"type":"function","name":"AUDITOR_HW_ROLE","inputs":[],"outputs":[{"name":"","type":"bytes32","internalType":"bytes32"}],"stateMutability":"view"},{"type":"function","name":"DEFAULT_ADMIN_ROLE","inputs":[],"outputs":[{"name":"","type":"bytes32","internalType":"bytes32"}],"stateMutability":"view"},{"type":"function","name":"ESCUELA_ROLE","inputs":[],"outputs":[{"name":"","type":"bytes32","internalType":"bytes32"}],"stateMutability":"view"},{"type":"function","name":"FABRICANTE_ROLE","inputs":[],"outputs":[{"name":"","type":"bytes32","internalType":"bytes32"}],"stateMutability":"view"},{"type":"function","name":"TECNICO_SW_ROLE","inputs":[],"outputs":[{"name":"","type":"bytes32","internalType":"bytes32"}],"stateMutability":"view"},{"type":"function","name":"approve","inputs":[{"name":"to","type":"address","internalType":"address"},{"name":"tokenId","type":"uint256","internalType":"uint256"}],"outputs":[],"stateMutability":"nonpayable"},{"type":"function","name":"approveRole","inputs":[{"name":"role","type":"bytes32","internalType":"bytes32"},{"name":"account","type":"address","internalType":"address"}],"outputs":[],"stateMutability":"nonpayable"},{"type":"function","name":"assignToStudent","inputs":[{"name":"serialNumber","type":"string","internalType":"string"},{"name":"schoolHash","type":"bytes32","internalType":"bytes32"},{"name":"studentHash","type":"bytes32","internalType":"bytes32"}],"outputs":[],"stateMutability":"nonpayable"},{"type":"function","name":"auditHardware","inputs":[{"name":"serialNumber","type":"string","internalType":"string"},{"name":"reportHash","type":"bytes32","internalType":"bytes32"}],"outputs":[],"stateMutability":"nonpayable"},{"type":"function","name":"balanceOf","inputs":[{"name":"owner","type":"address","internalType":"address"}],"outputs":[{"name":"","type":"uint256","internalType":"uint256"}],"stateMutability":"view"},{"type":"function","name":"cancelRoleRequest","inputs":[{"name":"role","type":"bytes32","internalType":"bytes32"}],"outputs":[],"stateMutability":"nonpayable"},{"type":"function","name":"getAllPendingRoleRequests","inputs":[],"outputs":[{"name":"","type":"tuple[]","internalType":"struct SupplyChainTracker.RoleApproval[]","components":[{"name":"state","type":"uint8","internalType":"enum SupplyChainTracker.RoleState"},{"name":"account","type":"address","internalType":"address"},{"name":"role","type":"bytes32","internalType":"bytes32"},{"name":"approvedBy","type":"address","internalType":"address"},{"name":"approvalTimestamp","type":"uint256","internalType":"uint256"}]}],"stateMutability":"view"},{"type":"function","name":"getApproved","inputs":[{"name":"tokenId","type":"uint256","internalType":"uint256"}],"outputs":[{"name":"","type":"address","internalType":"address"}],"stateMutability":"view"},{"type":"function","name":"getDistributionData","inputs":[{"name":"tokenId","type":"uint256","internalType":"uint256"}],"outputs":[{"name":"schoolHash","type":"bytes32","internalType":"bytes32"},{"name":"studentHash","type":"bytes32","internalType":"bytes32"},{"name":"timestamp","type":"uint256","internalType":"uint256"}],"stateMutability":"view"},{"type":"function","name":"getHardwareAuditData","inputs":[{"name":"tokenId","type":"uint256","internalType":"uint256"}],"outputs":[{"name":"auditor","type":"address","internalType":"address"},{"name":"reportHash","type":"bytes32","internalType":"bytes32"},{"name":"passed","type":"bool","internalType":"bool"}],"stateMutability":"view"},{"type":"function","name":"getNetbookReport","inputs":[{"name":"serialNumber","type":"string","internalType":"string"}],"outputs":[{"name":"","type":"tuple","internalType":"struct IERC721SupplyChain.Netbook","components":[{"name":"serialNumber","type":"string","internalType":"string"},{"name":"batchId","type":"string","internalType":"string"},{"name":"specs","type":"string","internalType":"string"},{"name":"state","type":"uint8","internalType":"uint8"},{"name":"hwAuditor","type":"address","internalType":"address"},{"name":"hwReportHash","type":"bytes32","internalType":"bytes32"},{"name":"hwIntegrityPassed","type":"bool","internalType":"bool"},{"name":"swTechnician","type":"address","internalType":"address"},{"name":"osVersion","type":"string","internalType":"string"},{"name":"swValidationPassed","type":"bool","internalType":"bool"},{"name":"destinationSchoolHash","type":"bytes32","internalType":"bytes32"},{"name":"studentIdHash","type":"bytes32","internalType":"bytes32"},{"name":"distributionTimestamp","type":"uint256","internalType":"uint256"}]}],"stateMutability":"view"},{"type":"function","name":"getNetbookReportByTokenId","inputs":[{"name":"tokenId","type":"uint256","internalType":"uint256"}],"outputs":[{"name":"","type":"tuple","internalType":"struct IERC721SupplyChain.Netbook","components":[{"name":"serialNumber","type":"string","internalType":"string"},{"name":"batchId","type":"string","internalType":"string"},{"name":"specs","type":"string","internalType":"string"},{"name":"state","type":"uint8","internalType":"uint8"},{"name":"hwAuditor","type":"address","internalType":"address"},{"name":"hwReportHash","type":"bytes32","internalType":"bytes32"},{"name":"hwIntegrityPassed","type":"bool","internalType":"bool"},{"name":"swTechnician","type":"address","internalType":"address"},{"name":"osVersion","type":"string","internalType":"string"},{"name":"swValidationPassed","type":"bool","internalType":"bool"},{"name":"destinationSchoolHash","type":"bytes32","internalType":"bytes32"},{"name":"studentIdHash","type":"bytes32","internalType":"bytes32"},{"name":"distributionTimestamp","type":"uint256","internalType":"uint256"}]}],"stateMutability":"view"},{"type":"function","name":"getNetbookState","inputs":[{"name":"serialNumber","type":"string","internalType":"string"}],"outputs":[{"name":"","type":"uint8","internalType":"uint8"}],"stateMutability":"view"},{"type":"function","name":"getRoleAdmin","inputs":[{"name":"role","type":"bytes32","internalType":"bytes32"}],"outputs":[{"name":"","type":"bytes32","internalType":"bytes32"}],"stateMutability":"view"},{"type":"function","name":"getRoleStatus","inputs":[{"name":"role","type":"bytes32","internalType":"bytes32"},{"name":"account","type":"address","internalType":"address"}],"outputs":[{"name":"","type":"tuple","internalType":"struct SupplyChainTracker.RoleApproval","components":[{"name":"state","type":"uint8","internalType":"enum SupplyChainTracker.RoleState"},{"name":"account","type":"address","internalType":"address"},{"name":"role","type":"bytes32","internalType":"bytes32"},{"name":"approvedBy","type":"address","internalType":"address"},{"name":"approvalTimestamp","type":"uint256","internalType":"uint256"}]}],"stateMutability":"view"},{"type":"function","name":"getSoftwareValidationData","inputs":[{"name":"tokenId","type":"uint256","internalType":"uint256"}],"outputs":[{"name":"technician","type":"address","internalType":"address"},{"name":"osVersion","type":"string","internalType":"string"},{"name":"passed","type":"bool","internalType":"bool"}],"stateMutability":"view"},{"type":"function","name":"getSupplyChainReport","inputs":[{"name":"tokenId","type":"uint256","internalType":"uint256"}],"outputs":[{"name":"","type":"tuple","internalType":"struct IERC721SupplyChain.Netbook","components":[{"name":"serialNumber","type":"string","internalType":"string"},{"name":"batchId","type":"string","internalType":"string"},{"name":"specs","type":"string","internalType":"string"},{"name":"state","type":"uint8","internalType":"uint8"},{"name":"hwAuditor","type":"address","internalType":"address"},{"name":"hwReportHash","type":"bytes32","internalType":"bytes32"},{"name":"hwIntegrityPassed","type":"bool","internalType":"bool"},{"name":"swTechnician","type":"address","internalType":"address"},{"name":"osVersion","type":"string","internalType":"string"},{"name":"swValidationPassed","type":"bool","internalType":"bool"},{"name":"destinationSchoolHash","type":"bytes32","internalType":"bytes32"},{"name":"studentIdHash","type":"bytes32","internalType":"bytes32"},{"name":"distributionTimestamp","type":"uint256","internalType":"uint256"}]}],"stateMutability":"view"},{"type":"function","name":"getTokenBatchId","inputs":[{"name":"tokenId","type":"uint256","internalType":"uint256"}],"outputs":[{"name":"","type":"string","internalType":"string"}],"stateMutability":"view"},{"type":"function","name":"getTokenSerialNumber","inputs":[{"name":"tokenId","type":"uint256","internalType":"uint256"}],"outputs":[{"name":"","type":"string","internalType":"string"}],"stateMutability":"view"},{"type":"function","name":"getTokenSpecs","inputs":[{"name":"tokenId","type":"uint256","internalType":"uint256"}],"outputs":[{"name":"","type":"string","internalType":"string"}],"stateMutability":"view"},{"type":"function","name":"getTokenState","inputs":[{"name":"tokenId","type":"uint256","internalType":"uint256"}],"outputs":[{"name":"","type":"uint8","internalType":"uint8"}],"stateMutability":"view"},{"type":"function","name":"getTokenStateLabel","inputs":[{"name":"tokenId","type":"uint256","internalType":"uint256"}],"outputs":[{"name":"","type":"string","internalType":"string"}],"stateMutability":"view"},{"type":"function","name":"grantRole","inputs":[{"name":"role","type":"bytes32","internalType":"bytes32"},{"name":"account","type":"address","internalType":"address"}],"outputs":[],"stateMutability":"nonpayable"},{"type":"function","name":"hasRole","inputs":[{"name":"role","type":"bytes32","internalType":"bytes32"},{"name":"account","type":"address","internalType":"address"}],"outputs":[{"name":"","type":"bool","internalType":"bool"}],"stateMutability":"view"},{"type":"function","name":"isApprovedForAll","inputs":[{"name":"owner","type":"address","internalType":"address"},{"name":"operator","type":"address","internalType":"address"}],"outputs":[{"name":"","type":"bool","internalType":"bool"}],"stateMutability":"view"},{"type":"function","name":"name","inputs":[],"outputs":[{"name":"","type":"string","internalType":"string"}],"stateMutability":"view"},{"type":"function","name":"ownerOf","inputs":[{"name":"tokenId","type":"uint256","internalType":"uint256"}],"outputs":[{"name":"","type":"address","internalType":"address"}],"stateMutability":"view"},{"type":"function","name":"registerNetbooks","inputs":[{"name":"serialNumbers","type":"string[]","internalType":"string[]"},{"name":"batchIds","type":"string[]","internalType":"string[]"},{"name":"specs","type":"string[]","internalType":"string[]"}],"outputs":[],"stateMutability":"nonpayable"},{"type":"function","name":"rejectRole","inputs":[{"name":"role","type":"bytes32","internalType":"bytes32"},{"name":"account","type":"address","internalType":"address"}],"outputs":[],"stateMutability":"nonpayable"},{"type":"function","name":"renounceRole","inputs":[{"name":"role","type":"bytes32","internalType":"bytes32"},{"name":"callerConfirmation","type":"address","internalType":"address"}],"outputs":[],"stateMutability":"nonpayable"},{"type":"function","name":"requestRoleApproval","inputs":[{"name":"role","type":"bytes32","internalType":"bytes32"}],"outputs":[],"stateMutability":"nonpayable"},{"type":"function","name":"revokeRole","inputs":[{"name":"role","type":"bytes32","internalType":"bytes32"},{"name":"account","type":"address","internalType":"address"}],"outputs":[],"stateMutability":"nonpayable"},{"type":"function","name":"revokeRoleApproval","inputs":[{"name":"role","type":"bytes32","internalType":"bytes32"},{"name":"account","type":"address","internalType":"address"}],"outputs":[],"stateMutability":"nonpayable"},{"type":"function","name":"safeTransferFrom","inputs":[{"name":"from","type":"address","internalType":"address"},{"name":"to","type":"address","internalType":"address"},{"name":"tokenId","type":"uint256","internalType":"uint256"}],"outputs":[],"stateMutability":"nonpayable"},{"type":"function","name":"safeTransferFrom","inputs":[{"name":"from","type":"address","internalType":"address"},{"name":"to","type":"address","internalType":"address"},{"name":"tokenId","type":"uint256","internalType":"uint256"},{"name":"data","type":"bytes","internalType":"bytes"}],"outputs":[],"stateMutability":"nonpayable"},{"type":"function","name":"serialNumberToTokenId","inputs":[{"name":"","type":"string","internalType":"string"}],"outputs":[{"name":"","type":"uint256","internalType":"uint256"}],"stateMutability":"view"},{"type":"function","name":"setApprovalForAll","inputs":[{"name":"operator","type":"address","internalType":"address"},{"name":"approved","type":"bool","internalType":"bool"}],"outputs":[],"stateMutability":"nonpayable"},{"type":"function","name":"supportsInterface","inputs":[{"name":"interfaceId","type":"bytes4","internalType":"bytes4"}],"outputs":[{"name":"","type":"bool","internalType":"bool"}],"stateMutability":"view"},{"type":"function","name":"symbol","inputs":[],"outputs":[{"name":"","type":"string","internalType":"string"}],"stateMutability":"view"},{"type":"function","name":"tokenByIndex","inputs":[{"name":"index","type":"uint256","internalType":"uint256"}],"outputs":[{"name":"","type":"uint256","internalType":"uint256"}],"stateMutability":"view"},{"type":"function","name":"tokenMetadata","inputs":[{"name":"","type":"uint256","internalType":"uint256"}],"outputs":[{"name":"serialNumber","type":"string","internalType":"string"},{"name":"manufacturer","type":"string","internalType":"string"},{"name":"technicalSpecs","type":"string","internalType":"string"},{"name":"batchId","type":"string","internalType":"string"},{"name":"hardwareAuditReportHash","type":"string","internalType":"string"},{"name":"softwareValidationReportHash","type":"string","internalType":"string"},{"name":"distributionCertificateHash","type":"string","internalType":"string"},{"name":"schoolHash","type":"bytes32","internalType":"bytes32"},{"name":"studentIdHash","type":"bytes32","internalType":"bytes32"}],"stateMutability":"view"},{"type":"function","name":"tokenOfOwnerByIndex","inputs":[{"name":"owner","type":"address","internalType":"address"},{"name":"index","type":"uint256","internalType":"uint256"}],"outputs":[{"name":"","type":"uint256","internalType":"uint256"}],"stateMutability":"view"},{"type":"function","name":"tokenState","inputs":[{"name":"","type":"uint256","internalType":"uint256"}],"outputs":[{"name":"","type":"uint8","internalType":"enum SupplyChainTracker.TokenState"}],"stateMutability":"view"},{"type":"function","name":"tokenURI","inputs":[{"name":"tokenId","type":"uint256","internalType":"uint256"}],"outputs":[{"name":"","type":"string","internalType":"string"}],"stateMutability":"view"},{"type":"function","name":"totalSupply","inputs":[],"outputs":[{"name":"","type":"uint256","internalType":"uint256"}],"stateMutability":"view"},{"type":"function","name":"transferFrom","inputs":[{"name":"from","type":"address","internalType":"address"},{"name":"to","type":"address","internalType":"address"},{"name":"tokenId","type":"uint256","internalType":"uint256"}],"outputs":[],"stateMutability":"nonpayable"},{"type":"function","name":"validateSoftware","inputs":[{"name":"serialNumber","type":"string","internalType":"string"},{"name":"osVersion","type":"string","internalType":"string"}],"outputs":[],"stateMutability":"nonpayable"},{"type":"function","name":"verificationHistory","inputs":[{"name":"","type":"uint256","internalType":"uint256"},{"name":"","type":"uint256","internalType":"uint256"}],"outputs":[{"name":"verifier","type":"address","internalType":"address"},{"name":"previousState","type":"uint8","internalType":"enum SupplyChainTracker.TokenState"},{"name":"newState","type":"uint8","internalType":"enum SupplyChainTracker.TokenState"},{"name":"timestamp","type":"uint256","internalType":"uint256"},{"name":"certificateHash","type":"string","internalType":"string"}],"stateMutability":"view"},{"type":"event","name":"Approval","inputs":[{"name":"owner","type":"address","indexed":true,"internalType":"address"},{"name":"approved","type":"address","indexed":true,"internalType":"address"},{"name":"tokenId","type":"uint256","indexed":true,"internalType":"uint256"}],"anonymous":false},{"type":"event","name":"ApprovalForAll","inputs":[{"name":"owner","type":"address","indexed":true,"internalType":"address"},{"name":"operator","type":"address","indexed":true,"internalType":"address"},{"name":"approved","type":"bool","indexed":false,"internalType":"bool"}],"anonymous":false},{"type":"event","name":"DistributionRecorded","inputs":[{"name":"tokenId","type":"uint256","indexed":false,"internalType":"uint256"},{"name":"schoolHash","type":"bytes32","indexed":false,"internalType":"bytes32"},{"name":"studentIdHash","type":"bytes32","indexed":false,"internalType":"bytes32"},{"name":"timestamp","type":"uint256","indexed":false,"internalType":"uint256"}],"anonymous":false},{"type":"event","name":"HardwareVerificationAdded","inputs":[{"name":"index","type":"uint256","indexed":false,"internalType":"uint256"},{"name":"verifier","type":"address","indexed":false,"internalType":"address"},{"name":"reportHash","type":"string","indexed":false,"internalType":"string"},{"name":"passed","type":"bool","indexed":false,"internalType":"bool"}],"anonymous":false},{"type":"event","name":"RoleAdminChanged","inputs":[{"name":"role","type":"bytes32","indexed":true,"internalType":"bytes32"},{"name":"previousAdminRole","type":"bytes32","indexed":true,"internalType":"bytes32"},{"name":"newAdminRole","type":"bytes32","indexed":true,"internalType":"bytes32"}],"anonymous":false},{"type":"event","name":"RoleApproved","inputs":[{"name":"role","type":"bytes32","indexed":true,"internalType":"bytes32"},{"name":"account","type":"address","indexed":true,"internalType":"address"},{"name":"approvedBy","type":"address","indexed":true,"internalType":"address"}],"anonymous":false},{"type":"event","name":"RoleGranted","inputs":[{"name":"role","type":"bytes32","indexed":true,"internalType":"bytes32"},{"name":"account","type":"address","indexed":true,"internalType":"address"},{"name":"sender","type":"address","indexed":true,"internalType":"address"}],"anonymous":false},{"type":"event","name":"RoleRejected","inputs":[{"name":"role","type":"bytes32","indexed":true,"internalType":"bytes32"},{"name":"account","type":"address","indexed":true,"internalType":"address"},{"name":"rejectedBy","type":"address","indexed":true,"internalType":"address"}],"anonymous":false},{"type":"event","name":"RoleRequestCanceled","inputs":[{"name":"role","type":"bytes32","indexed":true,"internalType":"bytes32"},{"name":"account","type":"address","indexed":true,"internalType":"address"}],"anonymous":false},{"type":"event","name":"RoleRequested","inputs":[{"name":"role","type":"bytes32","indexed":true,"internalType":"bytes32"},{"name":"account","type":"address","indexed":true,"internalType":"address"}],"anonymous":false},{"type":"event","name":"RoleRevoked","inputs":[{"name":"role","type":"bytes32","indexed":true,"internalType":"bytes32"},{"name":"account","type":"address","indexed":true,"internalType":"address"},{"name":"sender","type":"address","indexed":true,"internalType":"address"}],"anonymous":false},{"type":"event","name":"TokenMinted","inputs":[{"name":"tokenId","type":"uint256","indexed":false,"internalType":"uint256"},{"name":"serialNumber","type":"string","indexed":false,"internalType":"string"},{"name":"manufacturer","type":"string","indexed":false,"internalType":"string"}],"anonymous":false},{"type":"event","name":"TokenStateUpdated","inputs":[{"name":"tokenId","type":"uint256","indexed":false,"internalType":"uint256"},{"name":"newState","type":"uint8","indexed":false,"internalType":"enum SupplyChainTracker.TokenState"}],"anonymous":false},{"type":"event","name":"Transfer","inputs":[{"name":"from","type":"address","indexed":true,"internalType":"address"},{"name":"to","type":"address","indexed":true,"internalType":"address"},{"name":"tokenId","type":"uint256","indexed":true,"internalType":"uint256"}],"anonymous":false},{"type":"event","name":"VerificationRoleRegistered","inputs":[{"name":"verifier","type":"address","indexed":false,"internalType":"address"},{"name":"verificationType","type":"uint8","indexed":false,"internalType":"uint8"}],"anonymous":false},{"type":"event","name":"VerificationUpdated","inputs":[{"name":"tokenId","type":"uint256","indexed":true,"internalType":"uint256"},{"name":"previousState","type":"uint8","indexed":false,"internalType":"enum SupplyChainTracker.TokenState"},{"name":"newState","type":"uint8","indexed":false,"internalType":"enum SupplyChainTracker.TokenState"},{"name":"certificateHash","type":"string","indexed":false,"internalType":"string"}],"anonymous":false},{"type":"error","name":"AccessControlBadConfirmation","inputs":[]},{"type":"error","name":"AccessControlUnauthorizedAccount","inputs":[{"name":"account","type":"address","internalType":"address"},{"name":"neededRole","type":"bytes32","internalType":"bytes32"}]},{"type":"error","name":"ERC721EnumerableForbiddenBatchMint","inputs":[]},{"type":"error","name":"ERC721IncorrectOwner","inputs":[{"name":"sender","type":"address","internalType":"address"},{"name":"tokenId","type":"uint256","internalType":"uint256"},{"name":"owner","type":"address","internalType":"address"}]},{"type":"error","name":"ERC721InsufficientApproval","inputs":[{"name":"operator","type":"address","internalType":"address"},{"name":"tokenId","type":"uint256","internalType":"uint256"}]},{"type":"error","name":"ERC721InvalidApprover","inputs":[{"name":"approver","type":"address","internalType":"address"}]},{"type":"error","name":"ERC721InvalidOperator","inputs":[{"name":"operator","type":"address","internalType":"address"}]},{"type":"error","name":"ERC721InvalidOwner","inputs":[{"name":"owner","type":"address","internalType":"address"}]},{"type":"error","name":"ERC721InvalidReceiver","inputs":[{"name":"receiver","type":"address","internalType":"address"}]},{"type":"error","name":"ERC721InvalidSender","inputs":[{"name":"sender","type":"address","internalType":"address"}]},{"type":"error","name":"ERC721NonexistentToken","inputs":[{"name":"tokenId","type":"uint256","internalType":"uint256"}]},{"type":"error","name":"ERC721OutOfBoundsIndex","inputs":[{"name":"owner","type":"address","internalType":"address"},{"name":"index","type":"uint256","internalType":"uint256"}]},{"type":"error","name":"ReentrancyGuardReentrantCall","inputs":[]},{"type":"error","name":"StringsInsufficientHexLength","inputs":[{"name":"value","type":"uint256","internalType":"uint256"},{"name":"length","type":"uint256","internalType":"uint256"}]}],"bytecode":{"object":"0x608060405234801561000f575f5ffd5b506040518060400160405280601281526020017f5365637572654e6574626f6f6b546f6b656e00000000000000000000000000008152506040518060400160405280600481526020017f534e424b00000000000000000000000000000000000000000000000000000000815250815f908161008a91906104b1565b50806001908161009a91906104b1565b50505060016100bb6100b06100e160201b60201c565b61010a60201b60201c565b5f018190555060016012819055506100db5f5f1b3361011360201b60201c565b50610580565b5f7f9b779b17422d0df92223018b32b4d1fa46e071723d6817e2486d003becc55f005f1b905090565b5f819050919050565b5f610124838361020960201b60201c565b6101ff576001600a5f8581526020019081526020015f205f015f8473ffffffffffffffffffffffffffffffffffffffff1673ffffffffffffffffffffffffffffffffffffffff1681526020019081526020015f205f6101000a81548160ff02191690831515021790555061019c61026d60201b60201c565b73ffffffffffffffffffffffffffffffffffffffff168273ffffffffffffffffffffffffffffffffffffffff16847f2f8788117e7eff1d82e926ec794901d17c78024a50270940304540a733656f0d60405160405180910390a460019050610203565b5f90505b92915050565b5f600a5f8481526020019081526020015f205f015f8373ffffffffffffffffffffffffffffffffffffffff1673ffffffffffffffffffffffffffffffffffffffff1681526020019081526020015f205f9054906101000a900460ff16905092915050565b5f33905090565b5f81519050919050565b7f4e487b71000000000000000000000000000000000000000000000000000000005f52604160045260245ffd5b7f4e487b71000000000000000000000000000000000000000000000000000000005f52602260045260245ffd5b5f60028204905060018216806102ef57607f821691505b602082108103610302576103016102ab565b5b50919050565b5f819050815f5260205f209050919050565b5f6020601f8301049050919050565b5f82821b905092915050565b5f600883026103647fffffffffffffffffffffffffffffffffffffffffffffffffffffffffffffffff82610329565b61036e8683610329565b95508019841693508086168417925050509392505050565b5f819050919050565b5f819050919050565b5f6103b26103ad6103a884610386565b61038f565b610386565b9050919050565b5f819050919050565b6103cb83610398565b6103df6103d7826103b9565b848454610335565b825550505050565b5f5f905090565b6103f66103e7565b6104018184846103c2565b505050565b5b81811015610424576104195f826103ee565b600181019050610407565b5050565b601f8211156104695761043a81610308565b6104438461031a565b81016020851015610452578190505b61046661045e8561031a565b830182610406565b50505b505050565b5f82821c905092915050565b5f6104895f198460080261046e565b1980831691505092915050565b5f6104a1838361047a565b9150826002028217905092915050565b6104ba82610274565b67ffffffffffffffff8111156104d3576104d261027e565b5b6104dd82546102d8565b6104e8828285610428565b5f60209050601f831160018114610519575f8415610507578287015190505b6105118582610496565b865550610578565b601f19841661052786610308565b5f5b8281101561054e57848901518255600182019150602085019450602081019050610529565b8683101561056b5784890151610567601f89168261047a565b8355505b6001600288020188555050505b505050505050565b618db78061058d5f395ff3fe608060405234801561000f575f5ffd5b5060043610610325575f3560e01c80638a56fd33116101b6578063bd38edf011610102578063d547741f116100a0578063e985e9c51161007a578063e985e9c514610a71578063ea35af8114610aa1578063f43f190414610ad5578063f45fd0f314610b0557610325565b8063d547741f14610a09578063d6360f7e14610a25578063dc68a77514610a4157610325565b8063c9d9e6b1116100dc578063c9d9e6b11461096b578063cd28230614610989578063ceae2fbf146109b9578063d25c992a146109eb57610325565b8063bd38edf0146108ef578063c0a9a88e1461090b578063c87b56dd1461093b57610325565b80639cab5d9a1161016f578063a28e9c5511610149578063a28e9c5514610857578063a7aaac7214610873578063b88d4fde146108a3578063bb033cd4146108bf57610325565b80639cab5d9a146107eb578063a217fddf1461081d578063a22cb4651461083b57610325565b80638a56fd33146107175780638f84aec71461073557806391d14854146107515780639474807e1461078157806395d89b411461079d5780639745cc3d146107bb57610325565b80632f138200116102755780634f6ccce71161022e5780636914db60116102085780636914db601461066157806369abb1d41461069957806370a08231146106b75780637f613fa1146106e757610325565b80634f6ccce7146105d15780636106b1bc146106015780636352211e1461063157610325565b80632f138200146105155780632f2ff15d146105315780632f745c591461054d5780633567654d1461057d57806336568abe1461059957806342842e0e146105b557610325565b80630ce297b4116102e25780631c4922da116102bc5780631c4922da146104915780631e30dedc146104ad57806323b872dd146104c9578063248a9ca3146104e557610325565b80630ce297b41461041157806318160ddd14610443578063184b13421461046157610325565b806301ffc9a71461032957806303c406d41461035957806303dc4eb11461037757806306fdde03146103a7578063081812fc146103c5578063095ea7b3146103f5575b5f5ffd5b610343600480360381019061033e91906169b9565b610b35565b60405161035091906169fe565b60405180910390f35b610361610b56565b60405161036e9190616c07565b60405180910390f35b610391600480360381019061038c9190616c51565b610ca9565b60405161039e9190616cec565b60405180910390f35b6103af610d4c565b6040516103bc9190616cec565b60405180910390f35b6103df60048036038101906103da9190616c51565b610ddb565b6040516103ec9190616d1b565b60405180910390f35b61040f600480360381019061040a9190616d5e565b610df6565b005b61042b60048036038101906104269190616c51565b610e0c565b60405161043a93929190616dba565b60405180910390f35b61044b610f9c565b6040516104589190616def565b60405180910390f35b61047b60048036038101906104769190616c51565b610fa8565b6040516104889190616cec565b60405180910390f35b6104ab60048036038101906104a69190616e32565b61104c565b005b6104c760048036038101906104c29190616e32565b6112e9565b005b6104e360048036038101906104de9190616e70565b611632565b005b6104ff60048036038101906104fa9190616ec0565b611731565b60405161050c9190616eeb565b60405180910390f35b61052f600480360381019061052a9190616e32565b61174e565b005b61054b60048036038101906105469190616e32565b611a4f565b005b61056760048036038101906105629190616d5e565b611a71565b6040516105749190616def565b60405180910390f35b61059760048036038101906105929190616ec0565b611b15565b005b6105b360048036038101906105ae9190616e32565b611f03565b005b6105cf60048036038101906105ca9190616e70565b611f7e565b005b6105eb60048036038101906105e69190616c51565b611f9d565b6040516105f89190616def565b60405180910390f35b61061b60048036038101906106169190616c51565b61200f565b6040516106289190616cec565b60405180910390f35b61064b60048036038101906106469190616c51565b6120b3565b6040516106589190616d1b565b60405180910390f35b61067b60048036038101906106769190616c51565b6120c4565b60405161069099989796959493929190616f04565b60405180910390f35b6106a16124b8565b6040516106ae9190616eeb565b60405180910390f35b6106d160048036038101906106cc9190616fc0565b6124dc565b6040516106de9190616def565b60405180910390f35b61070160048036038101906106fc9190616c51565b612592565b60405161070e9190617188565b60405180910390f35b61071f612692565b60405161072c9190616eeb565b60405180910390f35b61074f600480360381019061074a91906172d4565b6126b6565b005b61076b60048036038101906107669190616e32565b612a3d565b60405161077891906169fe565b60405180910390f35b61079b6004803603810190610796919061742c565b612aa1565b005b6107a5612e5a565b6040516107b29190616cec565b60405180910390f35b6107d560048036038101906107d09190616c51565b612eea565b6040516107e29190617516565b60405180910390f35b61080560048036038101906108009190616c51565b612f07565b6040516108149392919061752f565b60405180910390f35b610825613032565b6040516108329190616eeb565b60405180910390f35b6108556004803603810190610850919061758e565b613038565b005b610871600480360381019061086c91906175cc565b61304e565b005b61088d60048036038101906108889190617638565b6134e7565b60405161089a9190617188565b60405180910390f35b6108bd60048036038101906108b8919061771d565b6135d6565b005b6108d960048036038101906108d49190617638565b6135fb565b6040516108e69190616def565b60405180910390f35b61090960048036038101906109049190616ec0565b613628565b005b61092560048036038101906109209190616c51565b613890565b6040516109329190616cec565b60405180910390f35b61095560048036038101906109509190616c51565b613bd6565b6040516109629190616cec565b60405180910390f35b610973613c3c565b6040516109809190616eeb565b60405180910390f35b6109a3600480360381019061099e9190617638565b613c60565b6040516109b091906177ac565b60405180910390f35b6109d360048036038101906109ce9190616c51565b613cfd565b6040516109e2939291906177c5565b60405180910390f35b6109f3613eb7565b604051610a009190616eeb565b60405180910390f35b610a236004803603810190610a1e9190616e32565b613edb565b005b610a3f6004803603810190610a3a9190617801565b613efd565b005b610a5b6004803603810190610a569190616c51565b6142ad565b604051610a689190617188565b60405180910390f35b610a8b6004803603810190610a86919061785b565b614997565b604051610a9891906169fe565b60405180910390f35b610abb6004803603810190610ab69190617899565b614a25565b604051610acc9594939291906178d7565b60405180910390f35b610aef6004803603810190610aea9190616e32565b614b2e565b604051610afc9190617995565b60405180910390f35b610b1f6004803603810190610b1a9190616c51565b614c8c565b604051610b2c91906177ac565b60405180910390f35b5f610b3f82614cc4565b80610b4f5750610b4e82614d3d565b5b9050919050565b60606011805480602002602001604051908101604052809291908181526020015f905b82821015610ca0578382905f5260205f2090600402016040518060a00160405290815f82015f9054906101000a900460ff166003811115610bbd57610bbc616a40565b5b6003811115610bcf57610bce616a40565b5b81526020015f820160019054906101000a900473ffffffffffffffffffffffffffffffffffffffff1673ffffffffffffffffffffffffffffffffffffffff1673ffffffffffffffffffffffffffffffffffffffff16815260200160018201548152602001600282015f9054906101000a900473ffffffffffffffffffffffffffffffffffffffff1673ffffffffffffffffffffffffffffffffffffffff1673ffffffffffffffffffffffffffffffffffffffff16815260200160038201548152505081526020019060010190610b79565b50505050905090565b6060600b5f8381526020019081526020015f205f018054610cc9906179db565b80601f0160208091040260200160405190810160405280929190818152602001828054610cf5906179db565b8015610d405780601f10610d1757610100808354040283529160200191610d40565b820191905f5260205f20905b815481529060010190602001808311610d2357829003601f168201915b50505050509050919050565b60605f8054610d5a906179db565b80601f0160208091040260200160405190810160405280929190818152602001828054610d86906179db565b8015610dd15780601f10610da857610100808354040283529160200191610dd1565b820191905f5260205f20905b815481529060010190602001808311610db457829003601f168201915b5050505050905090565b5f610de582614db6565b50610def82614e3c565b9050919050565b610e088282610e03614e75565b614e7c565b5050565b5f5f5f5f73ffffffffffffffffffffffffffffffffffffffff16610e2f856120b3565b73ffffffffffffffffffffffffffffffffffffffff1603610e85576040517f08c379a0000000000000000000000000000000000000000000000000000000008152600401610e7c90617a55565b60405180910390fd5b5f5f90505b600d5f8681526020019081526020015f2080549050811015610f865760036006811115610eba57610eb9616a40565b5b600d5f8781526020019081526020015f208281548110610edd57610edc617a73565b5b905f5260205f2090600302015f0160159054906101000a900460ff166006811115610f0b57610f0a616a40565b5b03610f7957600b5f8681526020019081526020015f2060070154600b5f8781526020019081526020015f2060080154600d5f8881526020019081526020015f208381548110610f5d57610f5c617a73565b5b905f5260205f2090600302016001015493509350935050610f95565b8080600101915050610e8a565b505f5f1b5f5f1b5f9250925092505b9193909250565b5f600880549050905090565b6060600b5f8381526020019081526020015f206002018054610fc9906179db565b80601f0160208091040260200160405190810160405280929190818152602001828054610ff5906179db565b80156110405780601f1061101757610100808354040283529160200191611040565b820191905f5260205f20905b81548152906001019060200180831161102357829003601f168201915b50505050509050919050565b5f5f1b61105881614e8e565b611060614ea2565b5f600381111561107357611072616a40565b5b60105f8581526020019081526020015f205f8473ffffffffffffffffffffffffffffffffffffffff1673ffffffffffffffffffffffffffffffffffffffff1681526020019081526020015f205f015f9054906101000a900460ff1660038111156110e0576110df616a40565b5b14611120576040517f08c379a000000000000000000000000000000000000000000000000000000000815260040161111790617aea565b60405180910390fd5b600260105f8581526020019081526020015f205f8473ffffffffffffffffffffffffffffffffffffffff1673ffffffffffffffffffffffffffffffffffffffff1681526020019081526020015f205f015f6101000a81548160ff0219169083600381111561119157611190616a40565b5b02179055503360105f8581526020019081526020015f205f8473ffffffffffffffffffffffffffffffffffffffff1673ffffffffffffffffffffffffffffffffffffffff1681526020019081526020015f206002015f6101000a81548173ffffffffffffffffffffffffffffffffffffffff021916908373ffffffffffffffffffffffffffffffffffffffff1602179055504260105f8581526020019081526020015f205f8473ffffffffffffffffffffffffffffffffffffffff1673ffffffffffffffffffffffffffffffffffffffff1681526020019081526020015f20600301819055503373ffffffffffffffffffffffffffffffffffffffff168273ffffffffffffffffffffffffffffffffffffffff16847face39aaa813405b7be22b13259f5d546db2465d6a0c7750c583a535138cd4dc560405160405180910390a46112dc8383614ec4565b6112e4615191565b505050565b5f5f1b6112f581614e8e565b6112fd614ea2565b600f5f8481526020019081526020015f205f8373ffffffffffffffffffffffffffffffffffffffff1673ffffffffffffffffffffffffffffffffffffffff1681526020019081526020015f205f9054906101000a900460ff16611395576040517f08c379a000000000000000000000000000000000000000000000000000000000815260040161138c90617b52565b60405180910390fd5b600160038111156113a9576113a8616a40565b5b60105f8581526020019081526020015f205f8473ffffffffffffffffffffffffffffffffffffffff1673ffffffffffffffffffffffffffffffffffffffff1681526020019081526020015f205f015f9054906101000a900460ff16600381111561141657611415616a40565b5b14611456576040517f08c379a000000000000000000000000000000000000000000000000000000000815260040161144d90617be0565b60405180910390fd5b5f600f5f8581526020019081526020015f205f8473ffffffffffffffffffffffffffffffffffffffff1673ffffffffffffffffffffffffffffffffffffffff1681526020019081526020015f205f6101000a81548160ff021916908315150217905550600360105f8581526020019081526020015f205f8473ffffffffffffffffffffffffffffffffffffffff1673ffffffffffffffffffffffffffffffffffffffff1681526020019081526020015f205f015f6101000a81548160ff0219169083600381111561152a57611529616a40565b5b02179055503360105f8581526020019081526020015f205f8473ffffffffffffffffffffffffffffffffffffffff1673ffffffffffffffffffffffffffffffffffffffff1681526020019081526020015f206002015f6101000a81548173ffffffffffffffffffffffffffffffffffffffff021916908373ffffffffffffffffffffffffffffffffffffffff1602179055504260105f8581526020019081526020015f205f8473ffffffffffffffffffffffffffffffffffffffff1673ffffffffffffffffffffffffffffffffffffffff1681526020019081526020015f206003018190555061161a83836151ab565b506116258383614ec4565b61162d615191565b505050565b5f73ffffffffffffffffffffffffffffffffffffffff168273ffffffffffffffffffffffffffffffffffffffff16036116a2575f6040517f64a0ae920000000000000000000000000000000000000000000000000000000081526004016116999190616d1b565b60405180910390fd5b5f6116b583836116b0614e75565b615295565b90508373ffffffffffffffffffffffffffffffffffffffff168173ffffffffffffffffffffffffffffffffffffffff161461172b578382826040517f64283d7b00000000000000000000000000000000000000000000000000000000815260040161172293929190617bfe565b60405180910390fd5b50505050565b5f600a5f8381526020019081526020015f20600101549050919050565b5f5f1b61175a81614e8e565b611762614ea2565b5f600381111561177557611774616a40565b5b60105f8581526020019081526020015f205f8473ffffffffffffffffffffffffffffffffffffffff1673ffffffffffffffffffffffffffffffffffffffff1681526020019081526020015f205f015f9054906101000a900460ff1660038111156117e2576117e1616a40565b5b14611822576040517f08c379a000000000000000000000000000000000000000000000000000000000815260040161181990617aea565b60405180910390fd5b6001600f5f8581526020019081526020015f205f8473ffffffffffffffffffffffffffffffffffffffff1673ffffffffffffffffffffffffffffffffffffffff1681526020019081526020015f205f6101000a81548160ff021916908315150217905550600160105f8581526020019081526020015f205f8473ffffffffffffffffffffffffffffffffffffffff1673ffffffffffffffffffffffffffffffffffffffff1681526020019081526020015f205f015f6101000a81548160ff021916908360038111156118f7576118f6616a40565b5b02179055503360105f8581526020019081526020015f205f8473ffffffffffffffffffffffffffffffffffffffff1673ffffffffffffffffffffffffffffffffffffffff1681526020019081526020015f206002015f6101000a81548173ffffffffffffffffffffffffffffffffffffffff021916908373ffffffffffffffffffffffffffffffffffffffff1602179055504260105f8581526020019081526020015f205f8473ffffffffffffffffffffffffffffffffffffffff1673ffffffffffffffffffffffffffffffffffffffff1681526020019081526020015f20600301819055503373ffffffffffffffffffffffffffffffffffffffff168273ffffffffffffffffffffffffffffffffffffffff16847fac1e93ee21f43e78a32b20b34ec7f9029e5f140277cb285fe3f5b5bf2fd2e62160405160405180910390a4611a428383614ec4565b611a4a615191565b505050565b611a5882611731565b611a6181614e8e565b611a6b83836153af565b50505050565b5f611a7b836124dc565b8210611ac05782826040517fa57d13dc000000000000000000000000000000000000000000000000000000008152600401611ab7929190617c33565b60405180910390fd5b60065f8473ffffffffffffffffffffffffffffffffffffffff1673ffffffffffffffffffffffffffffffffffffffff1681526020019081526020015f205f8381526020019081526020015f2054905092915050565b600f5f8281526020019081526020015f205f3373ffffffffffffffffffffffffffffffffffffffff1673ffffffffffffffffffffffffffffffffffffffff1681526020019081526020015f205f9054906101000a900460ff1615611bae576040517f08c379a0000000000000000000000000000000000000000000000000000000008152600401611ba590617cca565b60405180910390fd5b6040518060a001604052805f6003811115611bcc57611bcb616a40565b5b81526020013373ffffffffffffffffffffffffffffffffffffffff1681526020018281526020015f73ffffffffffffffffffffffffffffffffffffffff1681526020014281525060105f8381526020019081526020015f205f3373ffffffffffffffffffffffffffffffffffffffff1673ffffffffffffffffffffffffffffffffffffffff1681526020019081526020015f205f820151815f015f6101000a81548160ff02191690836003811115611c8757611c86616a40565b5b02179055506020820151815f0160016101000a81548173ffffffffffffffffffffffffffffffffffffffff021916908373ffffffffffffffffffffffffffffffffffffffff160217905550604082015181600101556060820151816002015f6101000a81548173ffffffffffffffffffffffffffffffffffffffff021916908373ffffffffffffffffffffffffffffffffffffffff16021790555060808201518160030155905050601160105f8381526020019081526020015f205f3373ffffffffffffffffffffffffffffffffffffffff1673ffffffffffffffffffffffffffffffffffffffff1681526020019081526020015f20908060018154018082558091505060019003905f5260205f2090600402015f909190919091505f82015f9054906101000a900460ff16815f015f6101000a81548160ff02191690836003811115611dd757611dd6616a40565b5b02179055505f820160019054906101000a900473ffffffffffffffffffffffffffffffffffffffff16815f0160016101000a81548173ffffffffffffffffffffffffffffffffffffffff021916908373ffffffffffffffffffffffffffffffffffffffff16021790555060018201548160010155600282015f9054906101000a900473ffffffffffffffffffffffffffffffffffffffff16816002015f6101000a81548173ffffffffffffffffffffffffffffffffffffffff021916908373ffffffffffffffffffffffffffffffffffffffff1602179055506003820154816003015550503373ffffffffffffffffffffffffffffffffffffffff16817ffaf225fc1cafc509a4b260495d1a4a0cd2531e2184b2efcf9eb0425ca30ce27760405160405180910390a350565b611f0b614e75565b73ffffffffffffffffffffffffffffffffffffffff168173ffffffffffffffffffffffffffffffffffffffff1614611f6f576040517f6697b23200000000000000000000000000000000000000000000000000000000815260040160405180910390fd5b611f7982826151ab565b505050565b611f9883838360405180602001604052805f8152506135d6565b505050565b5f611fa6610f9c565b8210611feb575f826040517fa57d13dc000000000000000000000000000000000000000000000000000000008152600401611fe2929190617c33565b60405180910390fd5b60088281548110611fff57611ffe617a73565b5b905f5260205f2001549050919050565b6060600b5f8381526020019081526020015f206003018054612030906179db565b80601f016020809104026020016040519081016040528092919081815260200182805461205c906179db565b80156120a75780601f1061207e576101008083540402835291602001916120a7565b820191905f5260205f20905b81548152906001019060200180831161208a57829003601f168201915b50505050509050919050565b5f6120bd82614db6565b9050919050565b600b602052805f5260405f205f91509050805f0180546120e3906179db565b80601f016020809104026020016040519081016040528092919081815260200182805461210f906179db565b801561215a5780601f106121315761010080835404028352916020019161215a565b820191905f5260205f20905b81548152906001019060200180831161213d57829003601f168201915b50505050509080600101805461216f906179db565b80601f016020809104026020016040519081016040528092919081815260200182805461219b906179db565b80156121e65780601f106121bd576101008083540402835291602001916121e6565b820191905f5260205f20905b8154815290600101906020018083116121c957829003601f168201915b5050505050908060020180546121fb906179db565b80601f0160208091040260200160405190810160405280929190818152602001828054612227906179db565b80156122725780601f1061224957610100808354040283529160200191612272565b820191905f5260205f20905b81548152906001019060200180831161225557829003601f168201915b505050505090806003018054612287906179db565b80601f01602080910402602001604051908101604052809291908181526020018280546122b3906179db565b80156122fe5780601f106122d5576101008083540402835291602001916122fe565b820191905f5260205f20905b8154815290600101906020018083116122e157829003601f168201915b505050505090806004018054612313906179db565b80601f016020809104026020016040519081016040528092919081815260200182805461233f906179db565b801561238a5780601f106123615761010080835404028352916020019161238a565b820191905f5260205f20905b81548152906001019060200180831161236d57829003601f168201915b50505050509080600501805461239f906179db565b80601f01602080910402602001604051908101604052809291908181526020018280546123cb906179db565b80156124165780601f106123ed57610100808354040283529160200191612416565b820191905f5260205f20905b8154815290600101906020018083116123f957829003601f168201915b50505050509080600601805461242b906179db565b80601f0160208091040260200160405190810160405280929190818152602001828054612457906179db565b80156124a25780601f10612479576101008083540402835291602001916124a2565b820191905f5260205f20905b81548152906001019060200180831161248557829003601f168201915b5050505050908060070154908060080154905089565b7f49c0376dc7caa3eab0c186e9bc20bf968b0724fea74a37706c35f59bc5d8b15b81565b5f5f73ffffffffffffffffffffffffffffffffffffffff168273ffffffffffffffffffffffffffffffffffffffff160361254d575f6040517f89c62b640000000000000000000000000000000000000000000000000000000081526004016125449190616d1b565b60405180910390fd5b60035f8373ffffffffffffffffffffffffffffffffffffffff1673ffffffffffffffffffffffffffffffffffffffff1681526020019081526020015f20549050919050565b61259a616859565b5f73ffffffffffffffffffffffffffffffffffffffff166125ba836120b3565b73ffffffffffffffffffffffffffffffffffffffff1603612610576040517f08c379a000000000000000000000000000000000000000000000000000000000815260040161260790617a55565b60405180910390fd5b3073ffffffffffffffffffffffffffffffffffffffff1663dc68a775836040518263ffffffff1660e01b81526004016126499190616def565b5f60405180830381865afa158015612663573d5f5f3e3d5ffd5b505050506040513d5f823e3d601f19601f8201168201806040525081019061268b9190617f7d565b9050919050565b7fa8f5858ea94a9ede7bc5dd04119dcc24b3b02a20be15d673993d8b6c2a901ef981565b7feeb4ddf6a0e2f06cb86713282a0b88ee789709e92a08b9e9b4ce816bbb13fcaf6126e081615499565b6126e8614ea2565b5f600e846040516126f99190617ffe565b90815260200160405180910390205490505f810361274c576040517f08c379a00000000000000000000000000000000000000000000000000000000081526004016127439061805e565b60405180910390fd5b600160068111156127605761275f616a40565b5b600c5f8381526020019081526020015f205f9054906101000a900460ff1660068111156127905761278f616a40565b5b146127d0576040517f08c379a00000000000000000000000000000000000000000000000000000000081526004016127c7906180ec565b60405180910390fd5b5f835111612813576040517f08c379a000000000000000000000000000000000000000000000000000000000815260040161280a9061817a565b60405180910390fd5b5f600b5f8381526020019081526020015f209050838160050190816128389190618338565b505f600c5f8481526020019081526020015f205f9054906101000a900460ff1690506002600c5f8581526020019081526020015f205f6101000a81548160ff0219169083600681111561288e5761288d616a40565b5b0217905550600d5f8481526020019081526020015f206040518060a001604052803373ffffffffffffffffffffffffffffffffffffffff1681526020018360068111156128de576128dd616a40565b5b8152602001600260068111156128f7576128f6616a40565b5b815260200142815260200187815250908060018154018082558091505060019003905f5260205f2090600302015f909190919091505f820151815f015f6101000a81548173ffffffffffffffffffffffffffffffffffffffff021916908373ffffffffffffffffffffffffffffffffffffffff1602179055506020820151815f0160146101000a81548160ff0219169083600681111561299a57612999616a40565b5b02179055506040820151815f0160156101000a81548160ff021916908360068111156129c9576129c8616a40565b5b02179055506060820151816001015560808201518160020190816129ed9190618338565b505050827f83a291d509630349e61c49e027fe1746d8b730f45030cee92794534e9f59b6ee82600288604051612a2593929190618407565b60405180910390a2505050612a38615191565b505050565b5f600a5f8481526020019081526020015f205f015f8373ffffffffffffffffffffffffffffffffffffffff1673ffffffffffffffffffffffffffffffffffffffff1681526020019081526020015f205f9054906101000a900460ff16905092915050565b7fbe0c84bfff967b2deb88bd0540d4a796d0ebfdcb72262ced26f1892b419e6457612acb816154e5565b82518451148015612add575081518351145b612b1c576040517f08c379a0000000000000000000000000000000000000000000000000000000008152600401612b139061848d565b60405180910390fd5b5f5f90505b8451811015612e53575f600e868381518110612b4057612b3f617a73565b5b6020026020010151604051612b559190617ffe565b90815260200160405180910390205414612ba4576040517f08c379a0000000000000000000000000000000000000000000000000000000008152600401612b9b906184f5565b60405180910390fd5b5f601254905060125f815480929190612bbc90618540565b9190505550604051806101200160405280878481518110612be057612bdf617a73565b5b602002602001015181526020016040518060400160405280600c81526020017f4d616e75666163747572657200000000000000000000000000000000000000008152508152602001858481518110612c3b57612c3a617a73565b5b60200260200101518152602001868481518110612c5b57612c5a617a73565b5b6020026020010151815260200160405180602001604052805f815250815260200160405180602001604052805f815250815260200160405180602001604052805f81525081526020015f5f1b81526020015f5f1b815250600b5f8381526020019081526020015f205f820151815f019081612cd69190618338565b506020820151816001019081612cec9190618338565b506040820151816002019081612d029190618338565b506060820151816003019081612d189190618338565b506080820151816004019081612d2e9190618338565b5060a0820151816005019081612d449190618338565b5060c0820151816006019081612d5a9190618338565b5060e0820151816007015561010082015181600801559050505f600c5f8381526020019081526020015f205f6101000a81548160ff02191690836006811115612da657612da5616a40565b5b021790555080600e878481518110612dc157612dc0617a73565b5b6020026020010151604051612dd69190617ffe565b908152602001604051809103902081905550612df23382615531565b7fb592728c7c01e208f601cb4cbc6c0414bc4b3cb91ef6c380358089c9b5f4503781878481518110612e2757612e26617a73565b5b6020026020010151604051612e3d9291906185d1565b60405180910390a1508080600101915050612b21565b5050505050565b606060018054612e69906179db565b80601f0160208091040260200160405190810160405280929190818152602001828054612e95906179db565b8015612ee05780601f10612eb757610100808354040283529160200191612ee0565b820191905f5260205f20905b815481529060010190602001808311612ec357829003601f168201915b5050505050905090565b600c602052805f5260405f205f915054906101000a900460ff1681565b5f5f5f5f5f90505b600d5f8681526020019081526020015f208054905081101561301e5760016006811115612f3f57612f3e616a40565b5b600d5f8781526020019081526020015f208281548110612f6257612f61617a73565b5b905f5260205f2090600302015f0160159054906101000a900460ff166006811115612f9057612f8f616a40565b5b0361301157600d5f8681526020019081526020015f208181548110612fb857612fb7617a73565b5b905f5260205f2090600302015f015f9054906101000a900473ffffffffffffffffffffffffffffffffffffffff16600b5f8781526020019081526020015f2060040161300390618678565b60019350935093505061302b565b8080600101915050612f0f565b505f5f5f1b5f9250925092505b9193909250565b5f5f1b81565b61304a613043614e75565b838361554e565b5050565b7fa8f5858ea94a9ede7bc5dd04119dcc24b3b02a20be15d673993d8b6c2a901ef961307881615499565b613080614ea2565b5f600e856040516130919190617ffe565b90815260200160405180910390205490505f81036130e4576040517f08c379a00000000000000000000000000000000000000000000000000000000081526004016130db9061805e565b60405180910390fd5b600260068111156130f8576130f7616a40565b5b600c5f8381526020019081526020015f205f9054906101000a900460ff16600681111561312857613127616a40565b5b14613168576040517f08c379a000000000000000000000000000000000000000000000000000000000815260040161315f90618758565b60405180910390fd5b5f5f1b84036131ac576040517f08c379a00000000000000000000000000000000000000000000000000000000081526004016131a3906187e6565b60405180910390fd5b5f5f1b83036131f0576040517f08c379a00000000000000000000000000000000000000000000000000000000081526004016131e790618874565b60405180910390fd5b5f600b5f8381526020019081526020015f2090505f5f1b81600801541461324c576040517f08c379a000000000000000000000000000000000000000000000000000000000815260040161324390618902565b60405180910390fd5b84816007018190555083816008018190555061326b855f1c60206156b7565b613278855f1c60206156b7565b604051602001613289929190618920565b6040516020818303038152906040528160060190816132a89190618338565b505f600c5f8481526020019081526020015f205f9054906101000a900460ff1690506003600c5f8581526020019081526020015f205f6101000a81548160ff021916908360068111156132fe576132fd616a40565b5b0217905550600d5f8481526020019081526020015f206040518060a001604052803373ffffffffffffffffffffffffffffffffffffffff16815260200183600681111561334e5761334d616a40565b5b81526020016003600681111561336757613366616a40565b5b815260200142815260200161337f895f1c60206156b7565b61338c895f1c60206156b7565b60405160200161339d929190618920565b604051602081830303815290604052815250908060018154018082558091505060019003905f5260205f2090600302015f909190919091505f820151815f015f6101000a81548173ffffffffffffffffffffffffffffffffffffffff021916908373ffffffffffffffffffffffffffffffffffffffff1602179055506020820151815f0160146101000a81548160ff0219169083600681111561344357613442616a40565b5b02179055506040820151815f0160156101000a81548160ff0219169083600681111561347257613471616a40565b5b02179055506060820151816001015560808201518160020190816134969190618338565b5050507fc4f160193b39a41d762228edfc6311af7995ca2b30ed20496a83d433c8ed5429838787426040516134ce9493929190618943565b60405180910390a15050506134e1615191565b50505050565b6134ef616859565b5f600e836040516135009190617ffe565b90815260200160405180910390205490505f8103613553576040517f08c379a000000000000000000000000000000000000000000000000000000000815260040161354a9061805e565b60405180910390fd5b3073ffffffffffffffffffffffffffffffffffffffff1663dc68a775826040518263ffffffff1660e01b815260040161358c9190616def565b5f60405180830381865afa1580156135a6573d5f5f3e3d5ffd5b505050506040513d5f823e3d601f19601f820116820180604052508101906135ce9190617f7d565b915050919050565b6135e1848484611632565b6135f56135ec614e75565b858585856158f5565b50505050565b600e818051602081018201805184825260208301602085012081835280955050505050505f915090505481565b5f600381111561363b5761363a616a40565b5b60105f8381526020019081526020015f205f3373ffffffffffffffffffffffffffffffffffffffff1673ffffffffffffffffffffffffffffffffffffffff1681526020019081526020015f205f015f9054906101000a900460ff1660038111156136a8576136a7616a40565b5b146136e8576040517f08c379a00000000000000000000000000000000000000000000000000000000081526004016136df90617aea565b60405180910390fd5b600360105f8381526020019081526020015f205f3373ffffffffffffffffffffffffffffffffffffffff1673ffffffffffffffffffffffffffffffffffffffff1681526020019081526020015f205f015f6101000a81548160ff0219169083600381111561375957613758616a40565b5b02179055503360105f8381526020019081526020015f205f3373ffffffffffffffffffffffffffffffffffffffff1673ffffffffffffffffffffffffffffffffffffffff1681526020019081526020015f206002015f6101000a81548173ffffffffffffffffffffffffffffffffffffffff021916908373ffffffffffffffffffffffffffffffffffffffff1602179055504260105f8381526020019081526020015f205f3373ffffffffffffffffffffffffffffffffffffffff1673ffffffffffffffffffffffffffffffffffffffff1681526020019081526020015f20600301819055503373ffffffffffffffffffffffffffffffffffffffff16817f54fb303343c094f8979f96ee93c6796c0979e406df77dea7b5a1dc447db8612260405160405180910390a361388d8133614ec4565b50565b60605f600c5f8481526020019081526020015f205f9054906101000a900460ff1690505f60068111156138c6576138c5616a40565b5b8160068111156138d9576138d8616a40565b5b0361391c576040518060400160405280600a81526020017f5265676973747261646100000000000000000000000000000000000000000000815250915050613bd1565b600160068111156139305761392f616a40565b5b81600681111561394357613942616a40565b5b03613986576040518060400160405280601081526020017f456e2056657269666963616369c3b36e00000000000000000000000000000000815250915050613bd1565b6002600681111561399a57613999616a40565b5b8160068111156139ad576139ac616a40565b5b036139f0576040518060400160405280600a81526020017f5665726966696361646100000000000000000000000000000000000000000000815250915050613bd1565b60036006811115613a0457613a03616a40565b5b816006811115613a1757613a16616a40565b5b03613a5a576040518060400160405280600b81526020017f4469737472696275696461000000000000000000000000000000000000000000815250915050613bd1565b60046006811115613a6e57613a6d616a40565b5b816006811115613a8157613a80616a40565b5b03613ac4576040518060400160405280601181526020017f467565726120646520536572766963696f000000000000000000000000000000815250915050613bd1565b60056006811115613ad857613ad7616a40565b5b816006811115613aeb57613aea616a40565b5b03613b2e576040518060400160405280601581526020017f5265706f727461646120636f6d6f20526f626164610000000000000000000000815250915050613bd1565b600680811115613b4157613b40616a40565b5b816006811115613b5457613b53616a40565b5b03613b97576040518060400160405280600981526020017f426c6f7175656164610000000000000000000000000000000000000000000000815250915050613bd1565b6040518060400160405280600b81526020017f446573636f6e6f6369646f0000000000000000000000000000000000000000008152509150505b919050565b6060613be182614db6565b505f613beb615aa1565b90505f815111613c095760405180602001604052805f815250613c34565b80613c1384615ab7565b604051602001613c24929190618920565b6040516020818303038152906040525b915050919050565b7fbe0c84bfff967b2deb88bd0540d4a796d0ebfdcb72262ced26f1892b419e645781565b5f5f600e83604051613c729190617ffe565b90815260200160405180910390205490505f8103613cc5576040517f08c379a0000000000000000000000000000000000000000000000000000000008152600401613cbc9061805e565b60405180910390fd5b600c5f8281526020019081526020015f205f9054906101000a900460ff166006811115613cf557613cf4616a40565b5b915050919050565b5f60605f5f5f90505b600d5f8681526020019081526020015f2080549050811015613e965760026006811115613d3657613d35616a40565b5b600d5f8781526020019081526020015f208281548110613d5957613d58617a73565b5b905f5260205f2090600302015f0160159054906101000a900460ff166006811115613d8757613d86616a40565b5b03613e8957600d5f8681526020019081526020015f208181548110613daf57613dae617a73565b5b905f5260205f2090600302015f015f9054906101000a900473ffffffffffffffffffffffffffffffffffffffff16600b5f8781526020019081526020015f206005016001818054613dff906179db565b80601f0160208091040260200160405190810160405280929190818152602001828054613e2b906179db565b8015613e765780601f10613e4d57610100808354040283529160200191613e76565b820191905f5260205f20905b815481529060010190602001808311613e5957829003601f168201915b5050505050915093509350935050613eb0565b8080600101915050613d06565b505f5f60405180602001604052805f815250909250925092505b9193909250565b7feeb4ddf6a0e2f06cb86713282a0b88ee789709e92a08b9e9b4ce816bbb13fcaf81565b613ee482611731565b613eed81614e8e565b613ef783836151ab565b50505050565b7f49c0376dc7caa3eab0c186e9bc20bf968b0724fea74a37706c35f59bc5d8b15b613f2781615499565b613f2f614ea2565b5f600e84604051613f409190617ffe565b90815260200160405180910390205490505f8103613f93576040517f08c379a0000000000000000000000000000000000000000000000000000000008152600401613f8a9061805e565b60405180910390fd5b5f6006811115613fa657613fa5616a40565b5b600c5f8381526020019081526020015f205f9054906101000a900460ff166006811115613fd657613fd5616a40565b5b14614016576040517f08c379a000000000000000000000000000000000000000000000000000000000815260040161400d906189f6565b60405180910390fd5b5f600b5f8381526020019081526020015f209050614037845f1c60206156b7565b8160040190816140479190618338565b505f600c5f8481526020019081526020015f205f9054906101000a900460ff1690506001600c5f8581526020019081526020015f205f6101000a81548160ff0219169083600681111561409d5761409c616a40565b5b0217905550827f83a291d509630349e61c49e027fe1746d8b730f45030cee92794534e9f59b6ee8260016140d4895f1c60206156b7565b6040516140e393929190618407565b60405180910390a2600d5f8481526020019081526020015f206040518060a001604052803373ffffffffffffffffffffffffffffffffffffffff16815260200183600681111561413657614135616a40565b5b81526020016001600681111561414f5761414e616a40565b5b8152602001428152602001614167885f1c60206156b7565b815250908060018154018082558091505060019003905f5260205f2090600302015f909190919091505f820151815f015f6101000a81548173ffffffffffffffffffffffffffffffffffffffff021916908373ffffffffffffffffffffffffffffffffffffffff1602179055506020820151815f0160146101000a81548160ff021916908360068111156141fe576141fd616a40565b5b02179055506040820151815f0160156101000a81548160ff0219169083600681111561422d5761422c616a40565b5b02179055506060820151816001015560808201518160020190816142519190618338565b505050827f83a291d509630349e61c49e027fe1746d8b730f45030cee92794534e9f59b6ee826001614286895f1c60206156b7565b60405161429593929190618407565b60405180910390a25050506142a8615191565b505050565b6142b5616859565b5f73ffffffffffffffffffffffffffffffffffffffff166142d5836120b3565b73ffffffffffffffffffffffffffffffffffffffff160361432b576040517f08c379a000000000000000000000000000000000000000000000000000000000815260040161432290617a55565b60405180910390fd5b5f5f90505f5f5f1b90505f5f90505f5f90505b600d5f8781526020019081526020015f208054905081101561444c576001600681111561436e5761436d616a40565b5b600d5f8881526020019081526020015f20828154811061439157614390617a73565b5b905f5260205f2090600302015f0160159054906101000a900460ff1660068111156143bf576143be616a40565b5b0361443f57600d5f8781526020019081526020015f2081815481106143e7576143e6617a73565b5b905f5260205f2090600302015f015f9054906101000a900473ffffffffffffffffffffffffffffffffffffffff169350600b5f8781526020019081526020015f2060040161443490618678565b92506001915061444c565b808060010191505061433e565b505f5f90505f60405180602001604052805f81525090505f5f90505f5f90505b600d5f8a81526020019081526020015f20805490508110156145f8576002600681111561449c5761449b616a40565b5b600d5f8b81526020019081526020015f2082815481106144bf576144be617a73565b5b905f5260205f2090600302015f0160159054906101000a900460ff1660068111156144ed576144ec616a40565b5b036145eb57600d5f8a81526020019081526020015f20818154811061451557614514617a73565b5b905f5260205f2090600302015f015f9054906101000a900473ffffffffffffffffffffffffffffffffffffffff169350600b5f8a81526020019081526020015f206005018054614564906179db565b80601f0160208091040260200160405190810160405280929190818152602001828054614590906179db565b80156145db5780601f106145b2576101008083540402835291602001916145db565b820191905f5260205f20905b8154815290600101906020018083116145be57829003601f168201915b50505050509250600191506145f8565b808060010191505061446c565b505f600b5f8a81526020019081526020015f206007015490505f600b5f8b81526020019081526020015f206008015490505f5f90505f5f90505b600d5f8d81526020019081526020015f20805490508110156146ff576003600681111561466257614661616a40565b5b600d5f8e81526020019081526020015f20828154811061468557614684617a73565b5b905f5260205f2090600302015f0160159054906101000a900460ff1660068111156146b3576146b2616a40565b5b036146f257600d5f8d81526020019081526020015f2081815481106146db576146da617a73565b5b905f5260205f2090600302016001015491506146ff565b8080600101915050614632565b50604051806101a00160405280600b5f8e81526020019081526020015f205f01805461472a906179db565b80601f0160208091040260200160405190810160405280929190818152602001828054614756906179db565b80156147a15780601f10614778576101008083540402835291602001916147a1565b820191905f5260205f20905b81548152906001019060200180831161478457829003601f168201915b50505050508152602001600b5f8e81526020019081526020015f2060030180546147ca906179db565b80601f01602080910402602001604051908101604052809291908181526020018280546147f6906179db565b80156148415780601f1061481857610100808354040283529160200191614841565b820191905f5260205f20905b81548152906001019060200180831161482457829003601f168201915b50505050508152602001600b5f8e81526020019081526020015f20600201805461486a906179db565b80601f0160208091040260200160405190810160405280929190818152602001828054614896906179db565b80156148e15780601f106148b8576101008083540402835291602001916148e1565b820191905f5260205f20905b8154815290600101906020018083116148c457829003601f168201915b50505050508152602001600c5f8e81526020019081526020015f205f9054906101000a900460ff16600681111561491b5761491a616a40565b5b60ff1681526020018a73ffffffffffffffffffffffffffffffffffffffff16815260200189815260200188151581526020018773ffffffffffffffffffffffffffffffffffffffff1681526020018681526020018515158152602001848152602001838152602001828152509950505050505050505050919050565b5f60055f8473ffffffffffffffffffffffffffffffffffffffff1673ffffffffffffffffffffffffffffffffffffffff1681526020019081526020015f205f8373ffffffffffffffffffffffffffffffffffffffff1673ffffffffffffffffffffffffffffffffffffffff1681526020019081526020015f205f9054906101000a900460ff16905092915050565b600d602052815f5260405f208181548110614a3e575f80fd5b905f5260205f2090600302015f9150915050805f015f9054906101000a900473ffffffffffffffffffffffffffffffffffffffff1690805f0160149054906101000a900460ff1690805f0160159054906101000a900460ff1690806001015490806002018054614aad906179db565b80601f0160208091040260200160405190810160405280929190818152602001828054614ad9906179db565b8015614b245780601f10614afb57610100808354040283529160200191614b24565b820191905f5260205f20905b815481529060010190602001808311614b0757829003601f168201915b5050505050905085565b614b366168eb565b60105f8481526020019081526020015f205f8373ffffffffffffffffffffffffffffffffffffffff1673ffffffffffffffffffffffffffffffffffffffff1681526020019081526020015f206040518060a00160405290815f82015f9054906101000a900460ff166003811115614bb057614baf616a40565b5b6003811115614bc257614bc1616a40565b5b81526020015f820160019054906101000a900473ffffffffffffffffffffffffffffffffffffffff1673ffffffffffffffffffffffffffffffffffffffff1673ffffffffffffffffffffffffffffffffffffffff16815260200160018201548152602001600282015f9054906101000a900473ffffffffffffffffffffffffffffffffffffffff1673ffffffffffffffffffffffffffffffffffffffff1673ffffffffffffffffffffffffffffffffffffffff168152602001600382015481525050905092915050565b5f600c5f8381526020019081526020015f205f9054906101000a900460ff166006811115614cbd57614cbc616a40565b5b9050919050565b5f7f780e9d63000000000000000000000000000000000000000000000000000000007bffffffffffffffffffffffffffffffffffffffffffffffffffffffff1916827bffffffffffffffffffffffffffffffffffffffffffffffffffffffff19161480614d365750614d3582615b81565b5b9050919050565b5f7f7965db0b000000000000000000000000000000000000000000000000000000007bffffffffffffffffffffffffffffffffffffffffffffffffffffffff1916827bffffffffffffffffffffffffffffffffffffffffffffffffffffffff19161480614daf5750614dae82614cc4565b5b9050919050565b5f5f614dc183615c62565b90505f73ffffffffffffffffffffffffffffffffffffffff168173ffffffffffffffffffffffffffffffffffffffff1603614e3357826040517f7e273289000000000000000000000000000000000000000000000000000000008152600401614e2a9190616def565b60405180910390fd5b80915050919050565b5f60045f8381526020019081526020015f205f9054906101000a900473ffffffffffffffffffffffffffffffffffffffff169050919050565b5f33905090565b614e898383836001615c9b565b505050565b614e9f81614e9a614e75565b615e5a565b50565b614eaa615eab565b6002614ebc614eb7615eec565b615f15565b5f0181905550565b5f5f90505b60118054905081101561518c578260118281548110614eeb57614eea617a73565b5b905f5260205f20906004020160010154148015614f7557508173ffffffffffffffffffffffffffffffffffffffff1660118281548110614f2e57614f2d617a73565b5b905f5260205f2090600402015f0160019054906101000a900473ffffffffffffffffffffffffffffffffffffffff1673ffffffffffffffffffffffffffffffffffffffff16145b1561517f5760116001601180549050614f8e9190618a14565b81548110614f9f57614f9e617a73565b5b905f5260205f20906004020160118281548110614fbf57614fbe617a73565b5b905f5260205f2090600402015f82015f9054906101000a900460ff16815f015f6101000a81548160ff02191690836003811115614fff57614ffe616a40565b5b02179055505f820160019054906101000a900473ffffffffffffffffffffffffffffffffffffffff16815f0160016101000a81548173ffffffffffffffffffffffffffffffffffffffff021916908373ffffffffffffffffffffffffffffffffffffffff16021790555060018201548160010155600282015f9054906101000a900473ffffffffffffffffffffffffffffffffffffffff16816002015f6101000a81548173ffffffffffffffffffffffffffffffffffffffff021916908373ffffffffffffffffffffffffffffffffffffffff1602179055506003820154816003015590505060118054806150f7576150f6618a47565b5b600190038181905f5260205f2090600402015f5f82015f6101000a81549060ff02191690555f820160016101000a81549073ffffffffffffffffffffffffffffffffffffffff0219169055600182015f9055600282015f6101000a81549073ffffffffffffffffffffffffffffffffffffffff0219169055600382015f90555050905561518c565b8080600101915050614ec9565b505050565b60016151a361519e615eec565b615f15565b5f0181905550565b5f6151b68383612a3d565b1561528b575f600a5f8581526020019081526020015f205f015f8473ffffffffffffffffffffffffffffffffffffffff1673ffffffffffffffffffffffffffffffffffffffff1681526020019081526020015f205f6101000a81548160ff021916908315150217905550615228614e75565b73ffffffffffffffffffffffffffffffffffffffff168273ffffffffffffffffffffffffffffffffffffffff16847ff6391f5c32d9c69d2a47ea670b442974b53935d1edc7fd64eb21e047a839171b60405160405180910390a46001905061528f565b5f90505b92915050565b5f5f6152a2858585615f1e565b90505f73ffffffffffffffffffffffffffffffffffffffff168173ffffffffffffffffffffffffffffffffffffffff16036152e5576152e084616129565b615324565b8473ffffffffffffffffffffffffffffffffffffffff168173ffffffffffffffffffffffffffffffffffffffff161461532357615322818561616d565b5b5b5f73ffffffffffffffffffffffffffffffffffffffff168573ffffffffffffffffffffffffffffffffffffffff16036153655761536084616244565b6153a4565b8473ffffffffffffffffffffffffffffffffffffffff168173ffffffffffffffffffffffffffffffffffffffff16146153a3576153a28585616304565b5b5b809150509392505050565b5f6153ba8383612a3d565b61548f576001600a5f8581526020019081526020015f205f015f8473ffffffffffffffffffffffffffffffffffffffff1673ffffffffffffffffffffffffffffffffffffffff1681526020019081526020015f205f6101000a81548160ff02191690831515021790555061542c614e75565b73ffffffffffffffffffffffffffffffffffffffff168273ffffffffffffffffffffffffffffffffffffffff16847f2f8788117e7eff1d82e926ec794901d17c78024a50270940304540a733656f0d60405160405180910390a460019050615493565b5f90505b92915050565b6154a38133616388565b6154e2576040517f08c379a00000000000000000000000000000000000000000000000000000000081526004016154d990618ae4565b60405180910390fd5b50565b6154ef8133616388565b61552e576040517f08c379a000000000000000000000000000000000000000000000000000000000815260040161552590618b72565b60405180910390fd5b50565b61554a828260405180602001604052805f8152506163ea565b5050565b5f73ffffffffffffffffffffffffffffffffffffffff168273ffffffffffffffffffffffffffffffffffffffff16036155be57816040517f5b08ba180000000000000000000000000000000000000000000000000000000081526004016155b59190616d1b565b60405180910390fd5b8060055f8573ffffffffffffffffffffffffffffffffffffffff1673ffffffffffffffffffffffffffffffffffffffff1681526020019081526020015f205f8473ffffffffffffffffffffffffffffffffffffffff1673ffffffffffffffffffffffffffffffffffffffff1681526020019081526020015f205f6101000a81548160ff0219169083151502179055508173ffffffffffffffffffffffffffffffffffffffff168373ffffffffffffffffffffffffffffffffffffffff167f17307eab39ab6107e8899845ad3d59bd9653f200f220920489ca2b5937696c31836040516156aa91906169fe565b60405180910390a3505050565b60605f8390505f60028460026156cd9190618b90565b6156d79190618bd1565b67ffffffffffffffff8111156156f0576156ef6171b0565b5b6040519080825280601f01601f1916602001820160405280156157225781602001600182028036833780820191505090505b5090507f3000000000000000000000000000000000000000000000000000000000000000815f8151811061575957615758617a73565b5b60200101907effffffffffffffffffffffffffffffffffffffffffffffffffffffffffffff191690815f1a9053507f7800000000000000000000000000000000000000000000000000000000000000816001815181106157bc576157bb617a73565b5b60200101907effffffffffffffffffffffffffffffffffffffffffffffffffffffffffffff191690815f1a9053505f60018560026157fa9190618b90565b6158049190618bd1565b90505b60018111156158a3577f3031323334353637383961626364656600000000000000000000000000000000600f84166010811061584657615845617a73565b5b1a60f81b82828151811061585d5761585c617a73565b5b60200101907effffffffffffffffffffffffffffffffffffffffffffffffffffffffffffff191690815f1a905350600483901c92508061589c90618c04565b9050615807565b505f82146158ea5784846040517fe22e27eb0000000000000000000000000000000000000000000000000000000081526004016158e1929190618c2b565b60405180910390fd5b809250505092915050565b5f8373ffffffffffffffffffffffffffffffffffffffff163b1115615a9a578273ffffffffffffffffffffffffffffffffffffffff1663150b7a02868685856040518563ffffffff1660e01b81526004016159539493929190618ca4565b6020604051808303815f875af192505050801561598e57506040513d601f19601f8201168201806040525081019061598b9190618d02565b60015b615a0f573d805f81146159bc576040519150601f19603f3d011682016040523d82523d5f602084013e6159c1565b606091505b505f815103615a0757836040517f64a0ae920000000000000000000000000000000000000000000000000000000081526004016159fe9190616d1b565b60405180910390fd5b805160208201fd5b63150b7a0260e01b7bffffffffffffffffffffffffffffffffffffffffffffffffffffffff1916817bffffffffffffffffffffffffffffffffffffffffffffffffffffffff191614615a9857836040517f64a0ae92000000000000000000000000000000000000000000000000000000008152600401615a8f9190616d1b565b60405180910390fd5b505b5050505050565b606060405180602001604052805f815250905090565b60605f6001615ac58461640d565b0190505f8167ffffffffffffffff811115615ae357615ae26171b0565b5b6040519080825280601f01601f191660200182016040528015615b155781602001600182028036833780820191505090505b5090505f82602083010190505b600115615b76578080600190039150507f3031323334353637383961626364656600000000000000000000000000000000600a86061a8153600a8581615b6b57615b6a618d2d565b5b0494505f8503615b22575b819350505050919050565b5f7f80ac58cd000000000000000000000000000000000000000000000000000000007bffffffffffffffffffffffffffffffffffffffffffffffffffffffff1916827bffffffffffffffffffffffffffffffffffffffffffffffffffffffff19161480615c4b57507f5b5e139f000000000000000000000000000000000000000000000000000000007bffffffffffffffffffffffffffffffffffffffffffffffffffffffff1916827bffffffffffffffffffffffffffffffffffffffffffffffffffffffff1916145b80615c5b5750615c5a8261655e565b5b9050919050565b5f60025f8381526020019081526020015f205f9054906101000a900473ffffffffffffffffffffffffffffffffffffffff169050919050565b8080615cd357505f73ffffffffffffffffffffffffffffffffffffffff168273ffffffffffffffffffffffffffffffffffffffff1614155b15615e05575f615ce284614db6565b90505f73ffffffffffffffffffffffffffffffffffffffff168373ffffffffffffffffffffffffffffffffffffffff1614158015615d4c57508273ffffffffffffffffffffffffffffffffffffffff168173ffffffffffffffffffffffffffffffffffffffff1614155b8015615d5f5750615d5d8184614997565b155b15615da157826040517fa9fbf51f000000000000000000000000000000000000000000000000000000008152600401615d989190616d1b565b60405180910390fd5b8115615e0357838573ffffffffffffffffffffffffffffffffffffffff168273ffffffffffffffffffffffffffffffffffffffff167f8c5be1e5ebec7d5bd14f71427d1e84f3dd0314c0f7b2291e5b200ac8c7c3b92560405160405180910390a45b505b8360045f8581526020019081526020015f205f6101000a81548173ffffffffffffffffffffffffffffffffffffffff021916908373ffffffffffffffffffffffffffffffffffffffff16021790555050505050565b615e648282612a3d565b615ea75780826040517fe2517d3f000000000000000000000000000000000000000000000000000000008152600401615e9e929190618d5a565b60405180910390fd5b5050565b615eb36165c7565b15615eea576040517f3ee5aeb500000000000000000000000000000000000000000000000000000000815260040160405180910390fd5b565b5f7f9b779b17422d0df92223018b32b4d1fa46e071723d6817e2486d003becc55f005f1b905090565b5f819050919050565b5f5f615f2984615c62565b90505f73ffffffffffffffffffffffffffffffffffffffff168373ffffffffffffffffffffffffffffffffffffffff1614615f6a57615f698184866165e3565b5b5f73ffffffffffffffffffffffffffffffffffffffff168173ffffffffffffffffffffffffffffffffffffffff1614615ff557615fa95f855f5f615c9b565b600160035f8373ffffffffffffffffffffffffffffffffffffffff1673ffffffffffffffffffffffffffffffffffffffff1681526020019081526020015f205f82825403925050819055505b5f73ffffffffffffffffffffffffffffffffffffffff168573ffffffffffffffffffffffffffffffffffffffff161461607457600160035f8773ffffffffffffffffffffffffffffffffffffffff1673ffffffffffffffffffffffffffffffffffffffff1681526020019081526020015f205f82825401925050819055505b8460025f8681526020019081526020015f205f6101000a81548173ffffffffffffffffffffffffffffffffffffffff021916908373ffffffffffffffffffffffffffffffffffffffff160217905550838573ffffffffffffffffffffffffffffffffffffffff168273ffffffffffffffffffffffffffffffffffffffff167fddf252ad1be2c89b69c2b068fc378daa952ba7f163c4a11628f55a4df523b3ef60405160405180910390a4809150509392505050565b60088054905060095f8381526020019081526020015f2081905550600881908060018154018082558091505060019003905f5260205f20015f909190919091505550565b5f616177836124dc565b90505f60075f8481526020019081526020015f205490505f60065f8673ffffffffffffffffffffffffffffffffffffffff1673ffffffffffffffffffffffffffffffffffffffff1681526020019081526020015f209050828214616216575f815f8581526020019081526020015f2054905080825f8581526020019081526020015f20819055508260075f8381526020019081526020015f2081905550505b60075f8581526020019081526020015f205f9055805f8481526020019081526020015f205f90555050505050565b5f60016008805490506162579190618a14565b90505f60095f8481526020019081526020015f205490505f6008838154811061628357616282617a73565b5b905f5260205f200154905080600883815481106162a3576162a2617a73565b5b905f5260205f2001819055508160095f8381526020019081526020015f208190555060095f8581526020019081526020015f205f905560088054806162eb576162ea618a47565b5b600190038181905f5260205f20015f9055905550505050565b5f6001616310846124dc565b61631a9190618a14565b90508160065f8573ffffffffffffffffffffffffffffffffffffffff1673ffffffffffffffffffffffffffffffffffffffff1681526020019081526020015f205f8381526020019081526020015f20819055508060075f8481526020019081526020015f2081905550505050565b5f600f5f8481526020019081526020015f205f8373ffffffffffffffffffffffffffffffffffffffff1673ffffffffffffffffffffffffffffffffffffffff1681526020019081526020015f205f9054906101000a900460ff16905092915050565b6163f483836166a6565b6164086163ff614e75565b5f8585856158f5565b505050565b5f5f5f90507a184f03e93ff9f4daa797ed6e38ed64bf6a1f0100000000000000008310616469577a184f03e93ff9f4daa797ed6e38ed64bf6a1f010000000000000000838161645f5761645e618d2d565b5b0492506040810190505b6d04ee2d6d415b85acef810000000083106164a6576d04ee2d6d415b85acef8100000000838161649c5761649b618d2d565b5b0492506020810190505b662386f26fc1000083106164d557662386f26fc1000083816164cb576164ca618d2d565b5b0492506010810190505b6305f5e10083106164fe576305f5e10083816164f4576164f3618d2d565b5b0492506008810190505b612710831061652357612710838161651957616518618d2d565b5b0492506004810190505b60648310616546576064838161653c5761653b618d2d565b5b0492506002810190505b600a8310616555576001810190505b80915050919050565b5f7f01ffc9a7000000000000000000000000000000000000000000000000000000007bffffffffffffffffffffffffffffffffffffffffffffffffffffffff1916827bffffffffffffffffffffffffffffffffffffffffffffffffffffffff1916149050919050565b5f60026165da6165d5615eec565b615f15565b5f015414905090565b6165ee838383616799565b6166a1575f73ffffffffffffffffffffffffffffffffffffffff168373ffffffffffffffffffffffffffffffffffffffff160361666257806040517f7e2732890000000000000000000000000000000000000000000000000000000081526004016166599190616def565b60405180910390fd5b81816040517f177e802f000000000000000000000000000000000000000000000000000000008152600401616698929190617c33565b60405180910390fd5b505050565b5f73ffffffffffffffffffffffffffffffffffffffff168273ffffffffffffffffffffffffffffffffffffffff1603616716575f6040517f64a0ae9200000000000000000000000000000000000000000000000000000000815260040161670d9190616d1b565b60405180910390fd5b5f61672283835f615295565b90505f73ffffffffffffffffffffffffffffffffffffffff168173ffffffffffffffffffffffffffffffffffffffff1614616794575f6040517f73c6ac6e00000000000000000000000000000000000000000000000000000000815260040161678b9190616d1b565b60405180910390fd5b505050565b5f5f73ffffffffffffffffffffffffffffffffffffffff168373ffffffffffffffffffffffffffffffffffffffff161415801561685057508273ffffffffffffffffffffffffffffffffffffffff168473ffffffffffffffffffffffffffffffffffffffff16148061681157506168108484614997565b5b8061684f57508273ffffffffffffffffffffffffffffffffffffffff1661683783614e3c565b73ffffffffffffffffffffffffffffffffffffffff16145b5b90509392505050565b604051806101a001604052806060815260200160608152602001606081526020015f60ff1681526020015f73ffffffffffffffffffffffffffffffffffffffff1681526020015f81526020015f151581526020015f73ffffffffffffffffffffffffffffffffffffffff168152602001606081526020015f151581526020015f81526020015f81526020015f81525090565b6040518060a001604052805f600381111561690957616908616a40565b5b81526020015f73ffffffffffffffffffffffffffffffffffffffff1681526020015f81526020015f73ffffffffffffffffffffffffffffffffffffffff1681526020015f81525090565b5f604051905090565b5f5ffd5b5f5ffd5b5f7fffffffff0000000000000000000000000000000000000000000000000000000082169050919050565b61699881616964565b81146169a2575f5ffd5b50565b5f813590506169b38161698f565b92915050565b5f602082840312156169ce576169cd61695c565b5b5f6169db848285016169a5565b91505092915050565b5f8115159050919050565b6169f8816169e4565b82525050565b5f602082019050616a115f8301846169ef565b92915050565b5f81519050919050565b5f82825260208201905092915050565b5f819050602082019050919050565b7f4e487b71000000000000000000000000000000000000000000000000000000005f52602160045260245ffd5b60048110616a7e57616a7d616a40565b5b50565b5f819050616a8e82616a6d565b919050565b5f616a9d82616a81565b9050919050565b616aad81616a93565b82525050565b5f73ffffffffffffffffffffffffffffffffffffffff82169050919050565b5f616adc82616ab3565b9050919050565b616aec81616ad2565b82525050565b5f819050919050565b616b0481616af2565b82525050565b5f819050919050565b616b1c81616b0a565b82525050565b60a082015f820151616b365f850182616aa4565b506020820151616b496020850182616ae3565b506040820151616b5c6040850182616afb565b506060820151616b6f6060850182616ae3565b506080820151616b826080850182616b13565b50505050565b5f616b938383616b22565b60a08301905092915050565b5f602082019050919050565b5f616bb582616a17565b616bbf8185616a21565b9350616bca83616a31565b805f5b83811015616bfa578151616be18882616b88565b9750616bec83616b9f565b925050600181019050616bcd565b5085935050505092915050565b5f6020820190508181035f830152616c1f8184616bab565b905092915050565b616c3081616b0a565b8114616c3a575f5ffd5b50565b5f81359050616c4b81616c27565b92915050565b5f60208284031215616c6657616c6561695c565b5b5f616c7384828501616c3d565b91505092915050565b5f81519050919050565b5f82825260208201905092915050565b8281835e5f83830152505050565b5f601f19601f8301169050919050565b5f616cbe82616c7c565b616cc88185616c86565b9350616cd8818560208601616c96565b616ce181616ca4565b840191505092915050565b5f6020820190508181035f830152616d048184616cb4565b905092915050565b616d1581616ad2565b82525050565b5f602082019050616d2e5f830184616d0c565b92915050565b616d3d81616ad2565b8114616d47575f5ffd5b50565b5f81359050616d5881616d34565b92915050565b5f5f60408385031215616d7457616d7361695c565b5b5f616d8185828601616d4a565b9250506020616d9285828601616c3d565b9150509250929050565b616da581616af2565b82525050565b616db481616b0a565b82525050565b5f606082019050616dcd5f830186616d9c565b616dda6020830185616d9c565b616de76040830184616dab565b949350505050565b5f602082019050616e025f830184616dab565b92915050565b616e1181616af2565b8114616e1b575f5ffd5b50565b5f81359050616e2c81616e08565b92915050565b5f5f60408385031215616e4857616e4761695c565b5b5f616e5585828601616e1e565b9250506020616e6685828601616d4a565b9150509250929050565b5f5f5f60608486031215616e8757616e8661695c565b5b5f616e9486828701616d4a565b9350506020616ea586828701616d4a565b9250506040616eb686828701616c3d565b9150509250925092565b5f60208284031215616ed557616ed461695c565b5b5f616ee284828501616e1e565b91505092915050565b5f602082019050616efe5f830184616d9c565b92915050565b5f610120820190508181035f830152616f1d818c616cb4565b90508181036020830152616f31818b616cb4565b90508181036040830152616f45818a616cb4565b90508181036060830152616f598189616cb4565b90508181036080830152616f6d8188616cb4565b905081810360a0830152616f818187616cb4565b905081810360c0830152616f958186616cb4565b9050616fa460e0830185616d9c565b616fb2610100830184616d9c565b9a9950505050505050505050565b5f60208284031215616fd557616fd461695c565b5b5f616fe284828501616d4a565b91505092915050565b5f82825260208201905092915050565b5f61700582616c7c565b61700f8185616feb565b935061701f818560208601616c96565b61702881616ca4565b840191505092915050565b5f60ff82169050919050565b61704881617033565b82525050565b617057816169e4565b82525050565b5f6101a083015f8301518482035f8601526170788282616ffb565b915050602083015184820360208601526170928282616ffb565b915050604083015184820360408601526170ac8282616ffb565b91505060608301516170c1606086018261703f565b5060808301516170d46080860182616ae3565b5060a08301516170e760a0860182616afb565b5060c08301516170fa60c086018261704e565b5060e083015161710d60e0860182616ae3565b506101008301518482036101008601526171278282616ffb565b91505061012083015161713e61012086018261704e565b50610140830151617153610140860182616afb565b50610160830151617168610160860182616afb565b5061018083015161717d610180860182616b13565b508091505092915050565b5f6020820190508181035f8301526171a0818461705d565b905092915050565b5f5ffd5b5f5ffd5b7f4e487b71000000000000000000000000000000000000000000000000000000005f52604160045260245ffd5b6171e682616ca4565b810181811067ffffffffffffffff82111715617205576172046171b0565b5b80604052505050565b5f617217616953565b905061722382826171dd565b919050565b5f67ffffffffffffffff821115617242576172416171b0565b5b61724b82616ca4565b9050602081019050919050565b828183375f83830152505050565b5f61727861727384617228565b61720e565b905082815260208101848484011115617294576172936171ac565b5b61729f848285617258565b509392505050565b5f82601f8301126172bb576172ba6171a8565b5b81356172cb848260208601617266565b91505092915050565b5f5f604083850312156172ea576172e961695c565b5b5f83013567ffffffffffffffff81111561730757617306616960565b5b617313858286016172a7565b925050602083013567ffffffffffffffff81111561733457617333616960565b5b617340858286016172a7565b9150509250929050565b5f67ffffffffffffffff821115617364576173636171b0565b5b602082029050602081019050919050565b5f5ffd5b5f61738b6173868461734a565b61720e565b905080838252602082019050602084028301858111156173ae576173ad617375565b5b835b818110156173f557803567ffffffffffffffff8111156173d3576173d26171a8565b5b8086016173e089826172a7565b855260208501945050506020810190506173b0565b5050509392505050565b5f82601f830112617413576174126171a8565b5b8135617423848260208601617379565b91505092915050565b5f5f5f606084860312156174435761744261695c565b5b5f84013567ffffffffffffffff8111156174605761745f616960565b5b61746c868287016173ff565b935050602084013567ffffffffffffffff81111561748d5761748c616960565b5b617499868287016173ff565b925050604084013567ffffffffffffffff8111156174ba576174b9616960565b5b6174c6868287016173ff565b9150509250925092565b600781106174e1576174e0616a40565b5b50565b5f8190506174f1826174d0565b919050565b5f617500826174e4565b9050919050565b617510816174f6565b82525050565b5f6020820190506175295f830184617507565b92915050565b5f6060820190506175425f830186616d0c565b61754f6020830185616d9c565b61755c60408301846169ef565b949350505050565b61756d816169e4565b8114617577575f5ffd5b50565b5f8135905061758881617564565b92915050565b5f5f604083850312156175a4576175a361695c565b5b5f6175b185828601616d4a565b92505060206175c28582860161757a565b9150509250929050565b5f5f5f606084860312156175e3576175e261695c565b5b5f84013567ffffffffffffffff811115617600576175ff616960565b5b61760c868287016172a7565b935050602061761d86828701616e1e565b925050604061762e86828701616e1e565b9150509250925092565b5f6020828403121561764d5761764c61695c565b5b5f82013567ffffffffffffffff81111561766a57617669616960565b5b617676848285016172a7565b91505092915050565b5f67ffffffffffffffff821115617699576176986171b0565b5b6176a282616ca4565b9050602081019050919050565b5f6176c16176bc8461767f565b61720e565b9050828152602081018484840111156176dd576176dc6171ac565b5b6176e8848285617258565b509392505050565b5f82601f830112617704576177036171a8565b5b81356177148482602086016176af565b91505092915050565b5f5f5f5f608085870312156177355761773461695c565b5b5f61774287828801616d4a565b945050602061775387828801616d4a565b935050604061776487828801616c3d565b925050606085013567ffffffffffffffff81111561778557617784616960565b5b617791878288016176f0565b91505092959194509250565b6177a681617033565b82525050565b5f6020820190506177bf5f83018461779d565b92915050565b5f6060820190506177d85f830186616d0c565b81810360208301526177ea8185616cb4565b90506177f960408301846169ef565b949350505050565b5f5f604083850312156178175761781661695c565b5b5f83013567ffffffffffffffff81111561783457617833616960565b5b617840858286016172a7565b925050602061785185828601616e1e565b9150509250929050565b5f5f604083850312156178715761787061695c565b5b5f61787e85828601616d4a565b925050602061788f85828601616d4a565b9150509250929050565b5f5f604083850312156178af576178ae61695c565b5b5f6178bc85828601616c3d565b92505060206178cd85828601616c3d565b9150509250929050565b5f60a0820190506178ea5f830188616d0c565b6178f76020830187617507565b6179046040830186617507565b6179116060830185616dab565b81810360808301526179238184616cb4565b90509695505050505050565b60a082015f8201516179435f850182616aa4565b5060208201516179566020850182616ae3565b5060408201516179696040850182616afb565b50606082015161797c6060850182616ae3565b50608082015161798f6080850182616b13565b50505050565b5f60a0820190506179a85f83018461792f565b92915050565b7f4e487b71000000000000000000000000000000000000000000000000000000005f52602260045260245ffd5b5f60028204905060018216806179f257607f821691505b602082108103617a0557617a046179ae565b5b50919050565b7f546f6b656e206e6f2065786973746500000000000000000000000000000000005f82015250565b5f617a3f600f83616c86565b9150617a4a82617a0b565b602082019050919050565b5f6020820190508181035f830152617a6c81617a33565b9050919050565b7f4e487b71000000000000000000000000000000000000000000000000000000005f52603260045260245ffd5b7f526f6c206e6f20657374c3a12070656e6469656e7465000000000000000000005f82015250565b5f617ad4601683616c86565b9150617adf82617aa0565b602082019050919050565b5f6020820190508181035f830152617b0181617ac8565b9050919050565b7f526f6c206e6f20657374c3a1206170726f6261646f00000000000000000000005f82015250565b5f617b3c601583616c86565b9150617b4782617b08565b602082019050919050565b5f6020820190508181035f830152617b6981617b30565b9050919050565b7f456c20726f6c206e6f20657374c3a120656e2065737461646f206170726f62615f8201527f646f2070617261207265766f63616369c3b36e00000000000000000000000000602082015250565b5f617bca603383616c86565b9150617bd582617b70565b604082019050919050565b5f6020820190508181035f830152617bf781617bbe565b9050919050565b5f606082019050617c115f830186616d0c565b617c1e6020830185616dab565b617c2b6040830184616d0c565b949350505050565b5f604082019050617c465f830185616d0c565b617c536020830184616dab565b9392505050565b7f526f6c207961206170726f6261646f20706172612065737461206469726563635f8201527f69c3b36e00000000000000000000000000000000000000000000000000000000602082015250565b5f617cb4602483616c86565b9150617cbf82617c5a565b604082019050919050565b5f6020820190508181035f830152617ce181617ca8565b9050919050565b5f5ffd5b5f5ffd5b5f617d02617cfd84617228565b61720e565b905082815260208101848484011115617d1e57617d1d6171ac565b5b617d29848285616c96565b509392505050565b5f82601f830112617d4557617d446171a8565b5b8151617d55848260208601617cf0565b91505092915050565b617d6781617033565b8114617d71575f5ffd5b50565b5f81519050617d8281617d5e565b92915050565b5f81519050617d9681616d34565b92915050565b5f81519050617daa81616e08565b92915050565b5f81519050617dbe81617564565b92915050565b5f81519050617dd281616c27565b92915050565b5f6101a08284031215617dee57617ded617ce8565b5b617df96101a061720e565b90505f82015167ffffffffffffffff811115617e1857617e17617cec565b5b617e2484828501617d31565b5f83015250602082015167ffffffffffffffff811115617e4757617e46617cec565b5b617e5384828501617d31565b602083015250604082015167ffffffffffffffff811115617e7757617e76617cec565b5b617e8384828501617d31565b6040830152506060617e9784828501617d74565b6060830152506080617eab84828501617d88565b60808301525060a0617ebf84828501617d9c565b60a08301525060c0617ed384828501617db0565b60c08301525060e0617ee784828501617d88565b60e08301525061010082015167ffffffffffffffff811115617f0c57617f0b617cec565b5b617f1884828501617d31565b61010083015250610120617f2e84828501617db0565b61012083015250610140617f4484828501617d9c565b61014083015250610160617f5a84828501617d9c565b61016083015250610180617f7084828501617dc4565b6101808301525092915050565b5f60208284031215617f9257617f9161695c565b5b5f82015167ffffffffffffffff811115617faf57617fae616960565b5b617fbb84828501617dd8565b91505092915050565b5f81905092915050565b5f617fd882616c7c565b617fe28185617fc4565b9350617ff2818560208601616c96565b80840191505092915050565b5f6180098284617fce565b915081905092915050565b7f4e6574626f6f6b206e6f206578697374650000000000000000000000000000005f82015250565b5f618048601183616c86565b915061805382618014565b602082019050919050565b5f6020820190508181035f8301526180758161803c565b9050919050565b7f45737461646f20696e636f72726563746f20706172612076616c6964616369c35f8201527fb36e20646520736f667477617265000000000000000000000000000000000000602082015250565b5f6180d6602e83616c86565b91506180e18261807c565b604082019050919050565b5f6020820190508181035f830152618103816180ca565b9050919050565b7f5665727369c3b36e2064656c2073697374656d61206f706572617469766f206e5f8201527f6f2070756564652073657220766163c3ad610000000000000000000000000000602082015250565b5f618164603283616c86565b915061816f8261810a565b604082019050919050565b5f6020820190508181035f83015261819181618158565b9050919050565b5f819050815f5260205f209050919050565b5f6020601f8301049050919050565b5f82821b905092915050565b5f600883026181f47fffffffffffffffffffffffffffffffffffffffffffffffffffffffffffffffff826181b9565b6181fe86836181b9565b95508019841693508086168417925050509392505050565b5f819050919050565b5f61823961823461822f84616b0a565b618216565b616b0a565b9050919050565b5f819050919050565b6182528361821f565b61826661825e82618240565b8484546181c5565b825550505050565b5f5f905090565b61827d61826e565b618288818484618249565b505050565b5b818110156182ab576182a05f82618275565b60018101905061828e565b5050565b601f8211156182f0576182c181618198565b6182ca846181aa565b810160208510156182d9578190505b6182ed6182e5856181aa565b83018261828d565b50505b505050565b5f82821c905092915050565b5f6183105f19846008026182f5565b1980831691505092915050565b5f6183288383618301565b9150826002028217905092915050565b61834182616c7c565b67ffffffffffffffff81111561835a576183596171b0565b5b61836482546179db565b61836f8282856182af565b5f60209050601f8311600181146183a0575f841561838e578287015190505b618398858261831d565b8655506183ff565b601f1984166183ae86618198565b5f5b828110156183d5578489015182556001820191506020850194506020810190506183b0565b868310156183f257848901516183ee601f891682618301565b8355505b6001600288020188555050505b505050505050565b5f60608201905061841a5f830186617507565b6184276020830185617507565b81810360408301526184398184616cb4565b9050949350505050565b7f4c6f6e676974756420646520617272617973206e6f20636f696e6369646500005f82015250565b5f618477601e83616c86565b915061848282618443565b602082019050919050565b5f6020820190508181035f8301526184a48161846b565b9050919050565b7f4e6574626f6f6b207961207265676973747261646100000000000000000000005f82015250565b5f6184df601583616c86565b91506184ea826184ab565b602082019050919050565b5f6020820190508181035f83015261850c816184d3565b9050919050565b7f4e487b71000000000000000000000000000000000000000000000000000000005f52601160045260245ffd5b5f61854a82616b0a565b91507fffffffffffffffffffffffffffffffffffffffffffffffffffffffffffffffff820361857c5761857b618513565b5b600182019050919050565b7f4d616e75666163747572657200000000000000000000000000000000000000005f82015250565b5f6185bb600c83616c86565b91506185c682618587565b602082019050919050565b5f6060820190506185e45f830185616dab565b81810360208301526185f68184616cb4565b90508181036040830152618609816185af565b90509392505050565b5f81549050618620816179db565b9050919050565b5f819050815f5260205f209050919050565b5f815f1c9050919050565b5f819050919050565b5f61865f61865a83618639565b618644565b9050919050565b5f618671825461864d565b9050919050565b5f61868282618612565b82601f8211156186985761869584618627565b90505b6186a181618666565b925060208210156186e1576186dc7fffffffffffffffffffffffffffffffffffffffffffffffffffffffffffffffff836020036008026181b9565b831692505b5050919050565b7f45737461646f20696e636f72726563746f2070617261206469737472696275635f8201527f69c3b36e00000000000000000000000000000000000000000000000000000000602082015250565b5f618742602483616c86565b915061874d826186e8565b604082019050919050565b5f6020820190508181035f83015261876f81618736565b9050919050565b7f48617368206465206c612065736375656c61206e6f20707565646520736572205f8201527f6365726f00000000000000000000000000000000000000000000000000000000602082015250565b5f6187d0602483616c86565b91506187db82618776565b604082019050919050565b5f6020820190508181035f8301526187fd816187c4565b9050919050565b7f486173682064656c20657374756469616e7465206e6f207075656465207365725f8201527f206365726f000000000000000000000000000000000000000000000000000000602082015250565b5f61885e602583616c86565b915061886982618804565b604082019050919050565b5f6020820190508181035f83015261888b81618852565b9050919050565b7f4c61206e6574626f6f6b20796120657374c3a120617369676e616461206120755f8201527f6e20657374756469616e74650000000000000000000000000000000000000000602082015250565b5f6188ec602c83616c86565b91506188f782618892565b604082019050919050565b5f6020820190508181035f830152618919816188e0565b9050919050565b5f61892b8285617fce565b91506189378284617fce565b91508190509392505050565b5f6080820190506189565f830187616dab565b6189636020830186616d9c565b6189706040830185616d9c565b61897d6060830184616dab565b95945050505050565b7f45737461646f20696e636f72726563746f20706172612061756469746f72c3ad5f8201527f6120646520686172647761726500000000000000000000000000000000000000602082015250565b5f6189e0602d83616c86565b91506189eb82618986565b604082019050919050565b5f6020820190508181035f830152618a0d816189d4565b9050919050565b5f618a1e82616b0a565b9150618a2983616b0a565b9250828203905081811115618a4157618a40618513565b5b92915050565b7f4e487b71000000000000000000000000000000000000000000000000000000005f52603160045260245ffd5b7f4e6f206175746f72697a61646f20706172612065737461206f706572616369c35f8201527fb36e000000000000000000000000000000000000000000000000000000000000602082015250565b5f618ace602283616c86565b9150618ad982618a74565b604082019050919050565b5f6020820190508181035f830152618afb81618ac2565b9050919050565b7f526f6c206e6f206170726f6261646f20706172612065737461206469726563635f8201527f69c3b36e00000000000000000000000000000000000000000000000000000000602082015250565b5f618b5c602483616c86565b9150618b6782618b02565b604082019050919050565b5f6020820190508181035f830152618b8981618b50565b9050919050565b5f618b9a82616b0a565b9150618ba583616b0a565b9250828202618bb381616b0a565b91508282048414831517618bca57618bc9618513565b5b5092915050565b5f618bdb82616b0a565b9150618be683616b0a565b9250828201905080821115618bfe57618bfd618513565b5b92915050565b5f618c0e82616b0a565b91505f8203618c2057618c1f618513565b5b600182039050919050565b5f604082019050618c3e5f830185616dab565b618c4b6020830184616dab565b9392505050565b5f81519050919050565b5f82825260208201905092915050565b5f618c7682618c52565b618c808185618c5c565b9350618c90818560208601616c96565b618c9981616ca4565b840191505092915050565b5f608082019050618cb75f830187616d0c565b618cc46020830186616d0c565b618cd16040830185616dab565b8181036060830152618ce38184618c6c565b905095945050505050565b5f81519050618cfc8161698f565b92915050565b5f60208284031215618d1757618d1661695c565b5b5f618d2484828501618cee565b91505092915050565b7f4e487b71000000000000000000000000000000000000000000000000000000005f52601260045260245ffd5b5f604082019050618d6d5f830185616d0c565b618d7a6020830184616d9c565b939250505056fea26469706673582212203cc6e4dfcc1462d6abad56bdeddd6c2038308f743767b20ac57f5ab8e07bc44464736f6c634300081e0033","linkReferences":{}},"methodIdentifiers":{"AUDITOR_HW_ROLE()":"69abb1d4","DEFAULT_ADMIN_ROLE()":"a217fddf","ESCUELA_ROLE()":"8a56fd33","FABRICANTE_ROLE()":"c9d9e6b1","TECNICO_SW_ROLE()":"d25c992a","approve(address,uint256)":"095ea7b3","approveRole(bytes32,address)":"2f138200","assignToStudent(string,bytes32,bytes32)":"a28e9c55","auditHardware(string,bytes32)":"d6360f7e","balanceOf(address)":"70a08231","cancelRoleRequest(bytes32)":"bd38edf0","getAllPendingRoleRequests()":"03c406d4","getApproved(uint256)":"081812fc","getDistributionData(uint256)":"0ce297b4","getHardwareAuditData(uint256)":"9cab5d9a","getNetbookReport(string)":"a7aaac72","getNetbookReportByTokenId(uint256)":"7f613fa1","getNetbookState(string)":"cd282306","getRoleAdmin(bytes32)":"248a9ca3","getRoleStatus(bytes32,address)":"f43f1904","getSoftwareValidationData(uint256)":"ceae2fbf","getSupplyChainReport(uint256)":"dc68a775","getTokenBatchId(uint256)":"6106b1bc","getTokenSerialNumber(uint256)":"03dc4eb1","getTokenSpecs(uint256)":"184b1342","getTokenState(uint256)":"f45fd0f3","getTokenStateLabel(uint256)":"c0a9a88e","grantRole(bytes32,address)":"2f2ff15d","hasRole(bytes32,address)":"91d14854","isApprovedForAll(address,address)":"e985e9c5","name()":"06fdde03","ownerOf(uint256)":"6352211e","registerNetbooks(string[],string[],string[])":"9474807e","rejectRole(bytes32,address)":"1c4922da","renounceRole(bytes32,address)":"36568abe","requestRoleApproval(bytes32)":"3567654d","revokeRole(bytes32,address)":"d547741f","revokeRoleApproval(bytes32,address)":"1e30dedc","safeTransferFrom(address,address,uint256)":"42842e0e","safeTransferFrom(address,address,uint256,bytes)":"b88d4fde","serialNumberToTokenId(string)":"bb033cd4","setApprovalForAll(address,bool)":"a22cb465","supportsInterface(bytes4)":"01ffc9a7","symbol()":"95d89b41","tokenByIndex(uint256)":"4f6ccce7","tokenMetadata(uint256)":"6914db60","tokenOfOwnerByIndex(address,uint256)":"2f745c59","tokenState(uint256)":"9745cc3d","tokenURI(uint256)":"c87b56dd","totalSupply()":"18160ddd","transferFrom(address,address,uint256)":"23b872dd","validateSoftware(string,string)":"8f84aec7","verificationHistory(uint256,uint256)":"ea35af81"},"id":43}